{"abi":[{"type":"constructor","inputs":[],"stateMutability":"nonpayable"},{"type":"receive","stateMutability":"payable"},{"type":"function","name":"authorizedTollContracts","inputs":[{"name":"","type":"address","internalType":"address"}],"outputs":[{"name":"","type":"bool","internalType":"bool"}],"stateMutability":"view"},{"type":"function","name":"emergencyWithdraw","inputs":[{"name":"amount","type":"uint256","internalType":"uint256"}],"outputs":[],"stateMutability":"nonpayable"},{"type":"function","name":"getBalance","inputs":[],"outputs":[{"name":"","type":"uint256","internalType":"uint256"}],"stateMutability":"view"},{"type":"function","name":"getWalletStats","inputs":[],"outputs":[{"name":"totalTopUpsAmount","type":"uint256","internalType":"uint256"},{"name":"totalTollPaymentsAmount","type":"uint256","internalType":"uint256"},{"name":"totalWithdrawalsAmount","type":"uint256","internalType":"uint256"},{"name":"currentBalance","type":"uint256","internalType":"uint256"}],"stateMutability":"view"},{"type":"function","name":"initialize","inputs":[{"name":"_tollCollectionContract","type":"address","internalType":"address"}],"outputs":[],"stateMutability":"nonpayable"},{"type":"function","name":"isAuthorizedForTollContract","inputs":[{"name":"_tollContract","type":"address","internalType":"address"}],"outputs":[{"name":"","type":"bool","internalType":"bool"}],"stateMutability":"view"},{"type":"function","name":"isInitialized","inputs":[],"outputs":[{"name":"","type":"bool","internalType":"bool"}],"stateMutability":"view"},{"type":"function","name":"owner","inputs":[],"outputs":[{"name":"","type":"address","internalType":"address"}],"stateMutability":"view"},{"type":"function","name":"pause","inputs":[],"outputs":[],"stateMutability":"nonpayable"},{"type":"function","name":"paused","inputs":[],"outputs":[{"name":"","type":"bool","internalType":"bool"}],"stateMutability":"view"},{"type":"function","name":"processTollPayment","inputs":[{"name":"amount","type":"uint256","internalType":"uint256"},{"name":"vehicleId","type":"string","internalType":"string"},{"name":"zkProofHash","type":"bytes32","internalType":"bytes32"}],"outputs":[],"stateMutability":"nonpayable"},{"type":"function","name":"renounceOwnership","inputs":[],"outputs":[],"stateMutability":"nonpayable"},{"type":"function","name":"setTollContractAuthorization","inputs":[{"name":"_tollContract","type":"address","internalType":"address"},{"name":"_isAuthorized","type":"bool","internalType":"bool"}],"outputs":[],"stateMutability":"nonpayable"},{"type":"function","name":"tollCollectionContract","inputs":[],"outputs":[{"name":"","type":"address","internalType":"address"}],"stateMutability":"view"},{"type":"function","name":"topUp","inputs":[{"name":"signature","type":"bytes","internalType":"bytes"}],"outputs":[],"stateMutability":"payable"},{"type":"function","name":"totalTollPayments","inputs":[],"outputs":[{"name":"","type":"uint256","internalType":"uint256"}],"stateMutability":"view"},{"type":"function","name":"totalTopUps","inputs":[],"outputs":[{"name":"","type":"uint256","internalType":"uint256"}],"stateMutability":"view"},{"type":"function","name":"totalWithdrawals","inputs":[],"outputs":[{"name":"","type":"uint256","internalType":"uint256"}],"stateMutability":"view"},{"type":"function","name":"transferOwnership","inputs":[{"name":"newOwner","type":"address","internalType":"address"}],"outputs":[],"stateMutability":"nonpayable"},{"type":"function","name":"unpause","inputs":[],"outputs":[],"stateMutability":"nonpayable"},{"type":"function","name":"withdraw","inputs":[{"name":"amount","type":"uint256","internalType":"uint256"},{"name":"signature","type":"bytes","internalType":"bytes"}],"outputs":[],"stateMutability":"nonpayable"},{"type":"event","name":"OwnershipTransferred","inputs":[{"name":"previousOwner","type":"address","indexed":true,"internalType":"address"},{"name":"newOwner","type":"address","indexed":true,"internalType":"address"}],"anonymous":false},{"type":"event","name":"Paused","inputs":[{"name":"account","type":"address","indexed":false,"internalType":"address"}],"anonymous":false},{"type":"event","name":"TollPaymentProcessed","inputs":[{"name":"tollContract","type":"address","indexed":true,"internalType":"address"},{"name":"amount","type":"uint256","indexed":false,"internalType":"uint256"},{"name":"timestamp","type":"uint256","indexed":false,"internalType":"uint256"}],"anonymous":false},{"type":"event","name":"TopUpReceived","inputs":[{"name":"from","type":"address","indexed":true,"internalType":"address"},{"name":"amount","type":"uint256","indexed":false,"internalType":"uint256"},{"name":"timestamp","type":"uint256","indexed":false,"internalType":"uint256"}],"anonymous":false},{"type":"event","name":"Unpaused","inputs":[{"name":"account","type":"address","indexed":false,"internalType":"address"}],"anonymous":false},{"type":"event","name":"WalletInitialized","inputs":[{"name":"owner","type":"address","indexed":true,"internalType":"address"},{"name":"timestamp","type":"uint256","indexed":false,"internalType":"uint256"}],"anonymous":false},{"type":"event","name":"WithdrawalProcessed","inputs":[{"name":"to","type":"address","indexed":true,"internalType":"address"},{"name":"amount","type":"uint256","indexed":false,"internalType":"uint256"},{"name":"timestamp","type":"uint256","indexed":false,"internalType":"uint256"}],"anonymous":false},{"type":"error","name":"EnforcedPause","inputs":[]},{"type":"error","name":"ExpectedPause","inputs":[]},{"type":"error","name":"OwnableInvalidOwner","inputs":[{"name":"owner","type":"address","internalType":"address"}]},{"type":"error","name":"OwnableUnauthorizedAccount","inputs":[{"name":"account","type":"address","internalType":"address"}]},{"type":"error","name":"ReentrancyGuardReentrantCall","inputs":[]}],"bytecode":{"object":"0x6080806040523461007c5760015f5533156100675760018054336001600160a01b03198216811790925560405191906001600160a01b03167f8be0079c531659141344cd1fd0a4f28419497f9722a3daafe3b4186f6b6457e05f80a3610dca90816100818239f35b631e4fbdf760e01b81525f6004820152602490fd5b5f80fdfe60406080815260048036101561005c575b50361561001b575f80fd5b61002734600354610c74565b6003557fd38c4fe5b0a3cb3196c58af9fa89da00b028573ffb3fd8f08d41a4b5966c52e98151913483524260208401523392a2005b905f91823560e01c8063030ba25d146109dc57806308f9bb07146109b35780630d807bde1461095557806312065fe01461093a578063392e53cd146109135780633f4ba83a146108a45780635312ea8e146107ab5780635af06e8f146107755780635c975abb1461074e578063604646271461072f5780636392403014610643578063715018a6146105e357806376e48ae3146103e85780638456cb59146103875780638da5cb5b1461035e578063902d61b014610341578063a5bb5714146101e3578063c4d66de814610244578063ce0a762514610225578063d46157eb146101e35763f2fde38b14610151575090610010565b346101df5760203660031901126101df5761016a610ba1565b90610173610bb7565b6001600160a01b039182169283156101c9575050600154826bffffffffffffffffffffffff60a01b821617600155167f8be0079c531659141344cd1fd0a4f28419497f9722a3daafe3b4186f6b6457e08380a380f35b51631e4fbdf760e01b8152908101849052602490fd5b8280fd5b5050346102215760203660031901126102215760209160ff9082906001600160a01b0361020e610ba1565b1681526006855220541690519015158152f35b5080fd5b5050346102215781600319360112610221576020906003549051908152f35b50346101df5760203660031901126101df5761025e610ba1565b90610267610bb7565b6002549060ff8260a01c166102fe57507f3f669bad8f962150ec44776b24d84ea7746740070e5b124889da3a3dc42135b9916020916001600160a01b039182169081906102b5821515610be3565b6bffffffffffffffffffffffff60a01b1617600255855260068252838520600160ff19825416179055600160a01b60ff60a01b196002541617600255600154169251428152a280f35b606490602085519162461bcd60e51b8352820152601a60248201527f57616c6c657420616c726561647920696e697469616c697a65640000000000006044820152fd5b50346101df57826003193601126101df5760209250549051908152f35b50503461022157816003193601126102215760015490516001600160a01b039091168152602090f35b50503461022157816003193601126102215760207f62e78cea01bee320cd4e420270b5ea74000d11b0c9f74754ebdbfc544b05a258916103c5610bb7565b6103cd610c95565b6001805460ff60a01b1916600160a01b17905551338152a180f35b50829034610221576060366003190112610221576024928135843567ffffffffffffffff81116105df57366023820112156105df5761042f90369087818701359101610b4f565b50610438610cb6565b610440610c95565b3384526020926006845260ff83862054161561059d576002549061046960ff8360a01c16610c2f565b82156105625761047b83471015610cd7565b6044351561052d57858080808660018060a01b038097165af161049c610d23565b50156104eb577f61825e2f462ef73b0cdf1d7af30b03b40f027b160dd162b082e8f05feb0d824d949596506104d2838254610c74565b9055600254169382519182524290820152a26001815580f35b835162461bcd60e51b8152908101859052601c818801527f546f6c6c207061796d656e74207472616e73666572206661696c6564000000006044820152606490fd5b835162461bcd60e51b81529081018590526010818801526f24b73b30b634b2102d2590383937b7b360811b6044820152606490fd5b835162461bcd60e51b815290810185905260168188015275125b9d985b1a59081c185e5b595b9d08185b5bdd5b9d60521b6044820152606490fd5b825162461bcd60e51b8152908101849052601e818701527f4f6e6c7920617574686f72697a656420746f6c6c20636f6e74726163747300006044820152606490fd5b8480fd5b83346106405780600319360112610640576105fc610bb7565b600180546001600160a01b0319811690915581906001600160a01b03167f8be0079c531659141344cd1fd0a4f28419497f9722a3daafe3b4186f6b6457e08280a380f35b80fd5b5060203660031901126101df57803567ffffffffffffffff811161072b5761066e9036908301610b83565b50610677610cb6565b61067f610c95565b61069060ff60025460a01c16610c2f565b34156106dd57506106a334600354610c74565b6003557fd38c4fe5b0a3cb3196c58af9fa89da00b028573ffb3fd8f08d41a4b5966c52e98151913483524260208401523392a26001815580f35b6020608492519162461bcd60e51b83528201526024808201527f546f702d757020616d6f756e74206d75737420626520677265617465722074686044820152630616e20360e41b6064820152fd5b8380fd5b5050346102215781600319360112610221576020906005549051908152f35b50503461022157816003193601126102215760209060ff60015460a01c1690519015158152f35b5090346101df57826003193601126101df5760809250600354915490600554904792815194855260208501528301526060820152f35b5090346101df5760203660031901126101df578135916107c9610bb7565b6107d1610cb6565b6107dc831515610d48565b6107e883471015610cd7565b6107f483600554610c74565b60055560018060a01b0390848080808786600154165af1610813610d23565b50156108555750907fddfdc995965c1fea3bbd2158d885347ad5c250f422d97342c6a3fa680600cf689160015416928151908152426020820152a26001815580f35b608490602084519162461bcd60e51b83528201526024808201527f456d657267656e6379207769746864726177616c207472616e736665722066616044820152631a5b195960e21b6064820152fd5b50346101df57826003193601126101df576108bd610bb7565b6001549060ff8260a01c1615610905575060ff60a01b1916600155513381527f5db9ee0a495bf2e6ff9c91a7834c1ba4fdd244a5e8aa4e537bd38aeae4b073aa90602090a180f35b8251638dfc202b60e01b8152fd5b50503461022157816003193601126102215760209060ff60025460a01c1690519015158152f35b50503461022157816003193601126102215751478152602090f35b50503461022157806003193601126102215761096f610ba1565b906024359182151580930361072b57610986610bb7565b6001600160a01b031661099a811515610be3565b8352600660205282209060ff8019835416911617905580f35b50503461022157816003193601126102215760025490516001600160a01b039091168152602090f35b5090346101df57806003193601126101df5781359160243567ffffffffffffffff81116105df57610a109036908301610b83565b50610a19610cb6565b610a21610c95565b610a3260ff60025460a01c16610c2f565b610a3d831515610d48565b610a4983471015610cd7565b610a5583600554610c74565b60055560018060a01b0390848080808786600154165af1610a74610d23565b5015610ab65750907fddfdc995965c1fea3bbd2158d885347ad5c250f422d97342c6a3fa680600cf689160015416928151908152426020820152a26001815580f35b606490602084519162461bcd60e51b8352820152601a60248201527f5769746864726177616c207472616e73666572206661696c65640000000000006044820152fd5b6040519190601f01601f1916820167ffffffffffffffff811183821017610b1f57604052565b634e487b7160e01b5f52604160045260245ffd5b67ffffffffffffffff8111610b1f57601f01601f191660200190565b929192610b63610b5e83610b33565b610af9565b9382855282820111610b7f57815f926020928387013784010152565b5f80fd5b9080601f83011215610b7f57816020610b9e93359101610b4f565b90565b600435906001600160a01b0382168203610b7f57565b6001546001600160a01b03163303610bcb57565b60405163118cdaa760e01b8152336004820152602490fd5b15610bea57565b60405162461bcd60e51b815260206004820152601d60248201527f496e76616c696420746f6c6c20636f6e747261637420616464726573730000006044820152606490fd5b15610c3657565b60405162461bcd60e51b815260206004820152601660248201527515d85b1b195d081b9bdd081a5b9a5d1a585b1a5e995960521b6044820152606490fd5b91908201809211610c8157565b634e487b7160e01b5f52601160045260245ffd5b60ff60015460a01c16610ca457565b60405163d93c066560e01b8152600490fd5b60025f5414610cc55760025f55565b604051633ee5aeb560e01b8152600490fd5b15610cde57565b60405162461bcd60e51b815260206004820152601b60248201527f496e73756666696369656e742077616c6c65742062616c616e636500000000006044820152606490fd5b3d15610d43573d90610d37610b5e83610b33565b9182523d5f602084013e565b606090565b15610d4f57565b60405162461bcd60e51b815260206004820152601960248201527f496e76616c6964207769746864726177616c20616d6f756e74000000000000006044820152606490fdfea26469706673582212202813bb0a0451b5085c3595eb8531421beec93df6083667126641fb6f21a3c4a064736f6c63430008140033","linkReferences":{}},"methodIdentifiers":{"authorizedTollContracts(address)":"d46157eb","emergencyWithdraw(uint256)":"5312ea8e","getBalance()":"12065fe0","getWalletStats()":"5af06e8f","initialize(address)":"c4d66de8","isAuthorizedForTollContract(address)":"a5bb5714","isInitialized()":"392e53cd","owner()":"8da5cb5b","pause()":"8456cb59","paused()":"5c975abb","processTollPayment(uint256,string,bytes32)":"76e48ae3","renounceOwnership()":"715018a6","setTollContractAuthorization(address,bool)":"0d807bde","tollCollectionContract()":"08f9bb07","topUp(bytes)":"63924030","totalTollPayments()":"902d61b0","totalTopUps()":"ce0a7625","totalWithdrawals()":"60464627","transferOwnership(address)":"f2fde38b","unpause()":"3f4ba83a","withdraw(uint256,bytes)":"030ba25d"},"id":35}