{"abi":[{"type":"constructor","inputs":[{"name":"_tollCollectionContract","type":"address","internalType":"address"}],"stateMutability":"nonpayable"},{"type":"function","name":"authorizedDeployers","inputs":[{"name":"","type":"address","internalType":"address"}],"outputs":[{"name":"","type":"bool","internalType":"bool"}],"stateMutability":"view"},{"type":"function","name":"deployTopUpWallet","inputs":[{"name":"user","type":"address","internalType":"address"}],"outputs":[{"name":"walletAddress","type":"address","internalType":"address"}],"stateMutability":"nonpayable"},{"type":"function","name":"deployTopUpWalletsBatch","inputs":[{"name":"users","type":"address[]","internalType":"address[]"}],"outputs":[{"name":"walletAddresses","type":"address[]","internalType":"address[]"}],"stateMutability":"nonpayable"},{"type":"function","name":"deployedWallets","inputs":[{"name":"","type":"uint256","internalType":"uint256"}],"outputs":[{"name":"","type":"address","internalType":"address"}],"stateMutability":"view"},{"type":"function","name":"getAllDeployedWallets","inputs":[],"outputs":[{"name":"wallets","type":"address[]","internalType":"address[]"}],"stateMutability":"view"},{"type":"function","name":"getDeployedWalletsPaginated","inputs":[{"name":"offset","type":"uint256","internalType":"uint256"},{"name":"limit","type":"uint256","internalType":"uint256"}],"outputs":[{"name":"wallets","type":"address[]","internalType":"address[]"},{"name":"totalCount","type":"uint256","internalType":"uint256"}],"stateMutability":"view"},{"type":"function","name":"getTotalDeployedWallets","inputs":[],"outputs":[{"name":"count","type":"uint256","internalType":"uint256"}],"stateMutability":"view"},{"type":"function","name":"getUserTopUpWallet","inputs":[{"name":"user","type":"address","internalType":"address"}],"outputs":[{"name":"walletAddress","type":"address","internalType":"address"}],"stateMutability":"view"},{"type":"function","name":"getUserWalletInfo","inputs":[{"name":"user","type":"address","internalType":"address"}],"outputs":[{"name":"walletAddress","type":"address","internalType":"address"},{"name":"exists","type":"bool","internalType":"bool"},{"name":"balance","type":"uint256","internalType":"uint256"}],"stateMutability":"view"},{"type":"function","name":"hasTopUpWallet","inputs":[{"name":"user","type":"address","internalType":"address"}],"outputs":[{"name":"hasWallet","type":"bool","internalType":"bool"}],"stateMutability":"view"},{"type":"function","name":"isDeployedWallet","inputs":[{"name":"","type":"address","internalType":"address"}],"outputs":[{"name":"","type":"bool","internalType":"bool"}],"stateMutability":"view"},{"type":"function","name":"owner","inputs":[],"outputs":[{"name":"","type":"address","internalType":"address"}],"stateMutability":"view"},{"type":"function","name":"pause","inputs":[],"outputs":[],"stateMutability":"nonpayable"},{"type":"function","name":"paused","inputs":[],"outputs":[{"name":"","type":"bool","internalType":"bool"}],"stateMutability":"view"},{"type":"function","name":"renounceOwnership","inputs":[],"outputs":[],"stateMutability":"nonpayable"},{"type":"function","name":"setDeployerAuthorization","inputs":[{"name":"deployer","type":"address","internalType":"address"},{"name":"isAuthorized","type":"bool","internalType":"bool"}],"outputs":[],"stateMutability":"nonpayable"},{"type":"function","name":"tollCollectionContract","inputs":[],"outputs":[{"name":"","type":"address","internalType":"address"}],"stateMutability":"view"},{"type":"function","name":"transferOwnership","inputs":[{"name":"newOwner","type":"address","internalType":"address"}],"outputs":[],"stateMutability":"nonpayable"},{"type":"function","name":"unpause","inputs":[],"outputs":[],"stateMutability":"nonpayable"},{"type":"function","name":"updateTollContract","inputs":[{"name":"newTollContract","type":"address","internalType":"address"}],"outputs":[],"stateMutability":"nonpayable"},{"type":"function","name":"userToWallet","inputs":[{"name":"","type":"address","internalType":"address"}],"outputs":[{"name":"","type":"address","internalType":"address"}],"stateMutability":"view"},{"type":"event","name":"OwnershipTransferred","inputs":[{"name":"previousOwner","type":"address","indexed":true,"internalType":"address"},{"name":"newOwner","type":"address","indexed":true,"internalType":"address"}],"anonymous":false},{"type":"event","name":"Paused","inputs":[{"name":"account","type":"address","indexed":false,"internalType":"address"}],"anonymous":false},{"type":"event","name":"TollContractUpdated","inputs":[{"name":"oldContract","type":"address","indexed":true,"internalType":"address"},{"name":"newContract","type":"address","indexed":true,"internalType":"address"}],"anonymous":false},{"type":"event","name":"TopUpWalletCreated","inputs":[{"name":"user","type":"address","indexed":true,"internalType":"address"},{"name":"walletAddress","type":"address","indexed":true,"internalType":"address"},{"name":"timestamp","type":"uint256","indexed":false,"internalType":"uint256"}],"anonymous":false},{"type":"event","name":"Unpaused","inputs":[{"name":"account","type":"address","indexed":false,"internalType":"address"}],"anonymous":false},{"type":"event","name":"WalletDeployed","inputs":[{"name":"walletAddress","type":"address","indexed":true,"internalType":"address"},{"name":"owner","type":"address","indexed":true,"internalType":"address"}],"anonymous":false},{"type":"error","name":"EnforcedPause","inputs":[]},{"type":"error","name":"ExpectedPause","inputs":[]},{"type":"error","name":"OwnableInvalidOwner","inputs":[{"name":"owner","type":"address","internalType":"address"}]},{"type":"error","name":"OwnableUnauthorizedAccount","inputs":[{"name":"account","type":"address","internalType":"address"}]},{"type":"error","name":"ReentrancyGuardReentrantCall","inputs":[]}],"bytecode":{"object":"0x60803461013057601f61205338819003918201601f19168301916001600160401b038311848410176101345780849260209460405283398101031261013057516001600160a01b039081811690819003610130575f906001825533156101175760018054336001600160a01b03198083168217909355604051959091167f8be0079c531659141344cd1fd0a4f28419497f9722a3daafe3b4186f6b6457e08580a381156100d557604093506002541617600255338152600660205220600160ff19825416179055604051611f0a90816101498239f35b62461bcd60e51b845260206004850152601d60248501527f496e76616c696420746f6c6c20636f6e747261637420616464726573730000006044850152606484fd5b604051631e4fbdf760e01b815260048101839052602490fd5b5f80fd5b634e487b7160e01b5f52604160045260245ffdfe60806040818152600480361015610014575f80fd5b5f92833560e01c90816308f9bb0714610cb1575080630b111898146109a35780632f9ece04146109845780633f4ba83a1461091557806340022ad7146108da578063568d372b146107d95780635c4599b21461079b5780635c975abb1461077457806363436c69146104ae578063715018a6146107175780638455c423146106d75780638456cb59146106765780638da5cb5b1461064d578063900c564b1461058957806394646e5a146104e75780639769dfb5146104ae578063b57e02cf1461046f578063c769c48114610274578063cb14aecc146101db578063d42ab69c146101995763f2fde38b14610107575f80fd5b3461019557602036600319011261019557610120610d12565b90610129610d75565b6001600160a01b0391821692831561017f575050600154826bffffffffffffffffffffffff60a01b821617600155167f8be0079c531659141344cd1fd0a4f28419497f9722a3daafe3b4186f6b6457e08380a380f35b51631e4fbdf760e01b8152908101849052602490fd5b8280fd5b5050346101d75760203660031901126101d75760209160ff9082906001600160a01b036101c4610d12565b1681526006855220541690519015158152f35b5080fd5b5050346101d757816003193601126101d75780519081809360035490818552602080950191600382527fc2575a0e9e593c00f959f8c92f12db2869c3395a3b0502d05e2516446f71f85b915b868282106102545785906102508861024184890385610ea2565b51928284938452830190610cd6565b0390f35b83546001600160a01b031685528895509093019260019283019201610227565b509190346101d7576020918260031936011261046c57610292610d12565b903381526006845260ff83822054168015610458575b6102b190610da1565b6102b9610f27565b6102c1610f06565b6001600160a01b03918216926102d8841515610dec565b8382528585526102ed83828420541615610e2f565b8051610e4b8082019082821067ffffffffffffffff8311176104455790829161108a8339039083f0801561043a5783169260025416833b156101955781519063189acdbd60e31b825287820152828160248183885af1801561041f5761042b575b50823b156101d757805163f2fde38b60e01b815286810185905295828760248183885af196871561041f57600194959697610410575b50858352865280822080546001600160a01b0319168517905583825260058652808220805460ff1916841790556103ba84610ec4565b83857f1f102f7b8aa7a91ab1d91aaac92eb050a84cf126311d87485256234170c70068888451428152a35193837ff25144576b87c0db53fd13e964c2b18299ee19d7d44d4b2636144644acff745b8380a3558152f35b61041990610e7a565b5f610384565b505051903d90823e3d90fd5b61043490610e7a565b5f61034e565b5051903d90823e3d90fd5b634e487b7160e01b855260418952602485fd5b506001546001600160a01b031633146102a8565b80fd5b50823461046c578260031936011261046c5750610490906024359035610fd5565b82518381529283926104a491840190610cd6565b9060208301520390f35b5034610195576020366003190112610195576020926001600160a01b0391839190836104d8610d12565b16825285522054169051908152f35b509034610195578060031936011261019557610501610d12565b916024359283151580940361058557610518610d75565b6001600160a01b031690811561054257508352600660205282209060ff8019835416911617905580f35b606490602084519162461bcd60e51b8352820152601860248201527f496e76616c6964206465706c6f796572206164647265737300000000000000006044820152fd5b8480fd5b50346101955760209182600319360112610649576105a5610d12565b6001600160a01b03908116855282845281852054169284928415159190826105da575b50606095508251948552840152820152f35b8351629032ff60e51b81529194508490829081885afa90811561063f57869161060a575b5060609550925f6105c8565b90508381813d8311610638575b6106218183610ea2565b810103126106345760609550515f6105fe565b8580fd5b503d610617565b83513d88823e3d90fd5b8380fd5b5050346101d757816003193601126101d75760015490516001600160a01b039091168152602090f35b5050346101d757816003193601126101d75760207f62e78cea01bee320cd4e420270b5ea74000d11b0c9f74754ebdbfc544b05a258916106b4610d75565b6106bc610f06565b6001805460ff60a01b1916600160a01b17905551338152a180f35b503461019557602036600319011261019557359160035483101561046c5750610701602092610d2c565b60018060a01b0391549060031b1c169051908152f35b833461046c578060031936011261046c57610730610d75565b600180546001600160a01b0319811690915581906001600160a01b03167f8be0079c531659141344cd1fd0a4f28419497f9722a3daafe3b4186f6b6457e08280a380f35b5050346101d757816003193601126101d75760209060ff60015460a01c1690519015158152f35b5050346101d75760203660031901126101d75760209160ff9082906001600160a01b036107c6610d12565b1681526005855220541690519015158152f35b509034610195576020366003190112610195576107f4610d12565b6107fc610d75565b6001600160a01b0390811692831561089757600254918216928385146108545750506001600160a01b03191682176002557f010f70c1fb717190597287ecc8876f499ee56d01bb7cf8dffdbb897e3827d2198380a380f35b906020606492519162461bcd60e51b8352820152601a60248201527f53616d6520746f6c6c20636f6e747261637420616464726573730000000000006044820152fd5b606490602084519162461bcd60e51b8352820152601d60248201527f496e76616c696420746f6c6c20636f6e747261637420616464726573730000006044820152fd5b5034610195576020366003190112610195576020926001600160a01b039183919083610904610d12565b168252855220541615159051908152f35b503461019557826003193601126101955761092e610d75565b6001549060ff8260a01c1615610976575060ff60a01b1916600155513381527f5db9ee0a495bf2e6ff9c91a7834c1ba4fdd244a5e8aa4e537bd38aeae4b073aa90602090a180f35b8251638dfc202b60e01b8152fd5b5050346101d757816003193601126101d7576020906003549051908152f35b509034610195576020908160031936011261064957823567ffffffffffffffff8082116106345736602383011215610634578185013591818311610cad5760249536878560051b84010111610ca9573388526006865260ff85892054168015610c95575b610a1090610da1565b610a18610f27565b610a20610f06565b8315610c5f5760328411610c1d57610a3784610f60565b9688610e4b9361108a915b878110610a60575060018b55875189815280610250818c018d610cd6565b838160051b8301013560018060a01b038d81831680930361046c57818c610a9c928f8b90610a8f881515610dec565b8783525220541615610e2f565b8a518881018181108b821117610c0a57908f9181908b898339039082f08015610bfe578216916002541690823b1561046c578c519163189acdbd60e31b83528983015281888183865af18015610bf257610be3575b50803b15610bdf578d8b5163f2fde38b60e01b815283898201528181898183875af18015610bd557918f938f958f88977f1f102f7b8aa7a91ab1d91aaac92eb050a84cf126311d87485256234170c7006891848f610bc19c869b610bb4927ff25144576b87c0db53fd13e964c2b18299ee19d7d44d4b2636144644acff745b9b859d610bc6575b50888b528652848a2080546001600160a01b03191685179055838a5260058652848a20805460ff19166001179055610baf84610ec4565b610fb4565b5251428152a380a3610f92565b610a42565b610bcf90610e7a565b5f610b78565b8d513d84823e3d90fd5b8d80fd5b610bec90610e7a565b5f610af1565b8f8d51903d90823e3d90fd5b508b51903d90823e3d90fd5b50634e487b7160e01b8f5260418852868ffd5b845162461bcd60e51b81529081018690526017818801527f546f6f206d616e7920757365727320696e2062617463680000000000000000006044820152606490fd5b845162461bcd60e51b815290810186905260118188015270139bc81d5cd95c9cc81c1c9bdd9a591959607a1b6044820152606490fd5b506001546001600160a01b03163314610a07565b8780fd5b8680fd5b8490346101d757816003193601126101d7576002546001600160a01b03168152602090f35b9081518082526020808093019301915f5b828110610cf5575050505090565b83516001600160a01b031685529381019392810192600101610ce7565b600435906001600160a01b0382168203610d2857565b5f80fd5b600354811015610d615760035f527fc2575a0e9e593c00f959f8c92f12db2869c3395a3b0502d05e2516446f71f85b01905f90565b634e487b7160e01b5f52603260045260245ffd5b6001546001600160a01b03163303610d8957565b60405163118cdaa760e01b8152336004820152602490fd5b15610da857565b606460405162461bcd60e51b815260206004820152602060248201527f4e6f7420617574686f72697a656420746f206465706c6f792077616c6c6574736044820152fd5b15610df357565b60405162461bcd60e51b8152602060048201526014602482015273496e76616c69642075736572206164647265737360601b6044820152606490fd5b15610e3657565b606460405162461bcd60e51b815260206004820152602060248201527f5573657220616c726561647920686173206120746f702d75702077616c6c65746044820152fd5b67ffffffffffffffff8111610e8e57604052565b634e487b7160e01b5f52604160045260245ffd5b90601f8019910116810190811067ffffffffffffffff821117610e8e57604052565b60035468010000000000000000811015610e8e57806001610ee89201600355610d2c565b819291549060031b9160018060a01b03809116831b921b1916179055565b60ff60015460a01c16610f1557565b60405163d93c066560e01b8152600490fd5b60025f5414610f365760025f55565b604051633ee5aeb560e01b8152600490fd5b67ffffffffffffffff8111610e8e5760051b60200190565b90610f6a82610f48565b610f776040519182610ea2565b8281528092610f88601f1991610f48565b0190602036910137565b5f198114610fa05760010190565b634e487b7160e01b5f52601160045260245ffd5b8051821015610d615760209160051b010190565b91908203918211610fa057565b9190916003908154938482101561105e57810190818111610fa057848211611056575b61100a6110058284610fc8565b610f60565b92815b83811061101c57505050509190565b8061102961105192610d2c565b905490841b1c6001600160a01b031661104b6110458684610fc8565b88610fb4565b52610f92565b61100d565b849150610ff8565b5050506040516020810181811067ffffffffffffffff821117610e8e576040525f81525f368137919056fe6080806040523461007c5760015f5533156100675760018054336001600160a01b03198216811790925560405191906001600160a01b03167f8be0079c531659141344cd1fd0a4f28419497f9722a3daafe3b4186f6b6457e05f80a3610dca90816100818239f35b631e4fbdf760e01b81525f6004820152602490fd5b5f80fdfe60406080815260048036101561005c575b50361561001b575f80fd5b61002734600354610c74565b6003557fd38c4fe5b0a3cb3196c58af9fa89da00b028573ffb3fd8f08d41a4b5966c52e98151913483524260208401523392a2005b905f91823560e01c8063030ba25d146109dc57806308f9bb07146109b35780630d807bde1461095557806312065fe01461093a578063392e53cd146109135780633f4ba83a146108a45780635312ea8e146107ab5780635af06e8f146107755780635c975abb1461074e578063604646271461072f5780636392403014610643578063715018a6146105e357806376e48ae3146103e85780638456cb59146103875780638da5cb5b1461035e578063902d61b014610341578063a5bb5714146101e3578063c4d66de814610244578063ce0a762514610225578063d46157eb146101e35763f2fde38b14610151575090610010565b346101df5760203660031901126101df5761016a610ba1565b90610173610bb7565b6001600160a01b039182169283156101c9575050600154826bffffffffffffffffffffffff60a01b821617600155167f8be0079c531659141344cd1fd0a4f28419497f9722a3daafe3b4186f6b6457e08380a380f35b51631e4fbdf760e01b8152908101849052602490fd5b8280fd5b5050346102215760203660031901126102215760209160ff9082906001600160a01b0361020e610ba1565b1681526006855220541690519015158152f35b5080fd5b5050346102215781600319360112610221576020906003549051908152f35b50346101df5760203660031901126101df5761025e610ba1565b90610267610bb7565b6002549060ff8260a01c166102fe57507f3f669bad8f962150ec44776b24d84ea7746740070e5b124889da3a3dc42135b9916020916001600160a01b039182169081906102b5821515610be3565b6bffffffffffffffffffffffff60a01b1617600255855260068252838520600160ff19825416179055600160a01b60ff60a01b196002541617600255600154169251428152a280f35b606490602085519162461bcd60e51b8352820152601a60248201527f57616c6c657420616c726561647920696e697469616c697a65640000000000006044820152fd5b50346101df57826003193601126101df5760209250549051908152f35b50503461022157816003193601126102215760015490516001600160a01b039091168152602090f35b50503461022157816003193601126102215760207f62e78cea01bee320cd4e420270b5ea74000d11b0c9f74754ebdbfc544b05a258916103c5610bb7565b6103cd610c95565b6001805460ff60a01b1916600160a01b17905551338152a180f35b50829034610221576060366003190112610221576024928135843567ffffffffffffffff81116105df57366023820112156105df5761042f90369087818701359101610b4f565b50610438610cb6565b610440610c95565b3384526020926006845260ff83862054161561059d576002549061046960ff8360a01c16610c2f565b82156105625761047b83471015610cd7565b6044351561052d57858080808660018060a01b038097165af161049c610d23565b50156104eb577f61825e2f462ef73b0cdf1d7af30b03b40f027b160dd162b082e8f05feb0d824d949596506104d2838254610c74565b9055600254169382519182524290820152a26001815580f35b835162461bcd60e51b8152908101859052601c818801527f546f6c6c207061796d656e74207472616e73666572206661696c6564000000006044820152606490fd5b835162461bcd60e51b81529081018590526010818801526f24b73b30b634b2102d2590383937b7b360811b6044820152606490fd5b835162461bcd60e51b815290810185905260168188015275125b9d985b1a59081c185e5b595b9d08185b5bdd5b9d60521b6044820152606490fd5b825162461bcd60e51b8152908101849052601e818701527f4f6e6c7920617574686f72697a656420746f6c6c20636f6e74726163747300006044820152606490fd5b8480fd5b83346106405780600319360112610640576105fc610bb7565b600180546001600160a01b0319811690915581906001600160a01b03167f8be0079c531659141344cd1fd0a4f28419497f9722a3daafe3b4186f6b6457e08280a380f35b80fd5b5060203660031901126101df57803567ffffffffffffffff811161072b5761066e9036908301610b83565b50610677610cb6565b61067f610c95565b61069060ff60025460a01c16610c2f565b34156106dd57506106a334600354610c74565b6003557fd38c4fe5b0a3cb3196c58af9fa89da00b028573ffb3fd8f08d41a4b5966c52e98151913483524260208401523392a26001815580f35b6020608492519162461bcd60e51b83528201526024808201527f546f702d757020616d6f756e74206d75737420626520677265617465722074686044820152630616e20360e41b6064820152fd5b8380fd5b5050346102215781600319360112610221576020906005549051908152f35b50503461022157816003193601126102215760209060ff60015460a01c1690519015158152f35b5090346101df57826003193601126101df5760809250600354915490600554904792815194855260208501528301526060820152f35b5090346101df5760203660031901126101df578135916107c9610bb7565b6107d1610cb6565b6107dc831515610d48565b6107e883471015610cd7565b6107f483600554610c74565b60055560018060a01b0390848080808786600154165af1610813610d23565b50156108555750907fddfdc995965c1fea3bbd2158d885347ad5c250f422d97342c6a3fa680600cf689160015416928151908152426020820152a26001815580f35b608490602084519162461bcd60e51b83528201526024808201527f456d657267656e6379207769746864726177616c207472616e736665722066616044820152631a5b195960e21b6064820152fd5b50346101df57826003193601126101df576108bd610bb7565b6001549060ff8260a01c1615610905575060ff60a01b1916600155513381527f5db9ee0a495bf2e6ff9c91a7834c1ba4fdd244a5e8aa4e537bd38aeae4b073aa90602090a180f35b8251638dfc202b60e01b8152fd5b50503461022157816003193601126102215760209060ff60025460a01c1690519015158152f35b50503461022157816003193601126102215751478152602090f35b50503461022157806003193601126102215761096f610ba1565b906024359182151580930361072b57610986610bb7565b6001600160a01b031661099a811515610be3565b8352600660205282209060ff8019835416911617905580f35b50503461022157816003193601126102215760025490516001600160a01b039091168152602090f35b5090346101df57806003193601126101df5781359160243567ffffffffffffffff81116105df57610a109036908301610b83565b50610a19610cb6565b610a21610c95565b610a3260ff60025460a01c16610c2f565b610a3d831515610d48565b610a4983471015610cd7565b610a5583600554610c74565b60055560018060a01b0390848080808786600154165af1610a74610d23565b5015610ab65750907fddfdc995965c1fea3bbd2158d885347ad5c250f422d97342c6a3fa680600cf689160015416928151908152426020820152a26001815580f35b606490602084519162461bcd60e51b8352820152601a60248201527f5769746864726177616c207472616e73666572206661696c65640000000000006044820152fd5b6040519190601f01601f1916820167ffffffffffffffff811183821017610b1f57604052565b634e487b7160e01b5f52604160045260245ffd5b67ffffffffffffffff8111610b1f57601f01601f191660200190565b929192610b63610b5e83610b33565b610af9565b9382855282820111610b7f57815f926020928387013784010152565b5f80fd5b9080601f83011215610b7f57816020610b9e93359101610b4f565b90565b600435906001600160a01b0382168203610b7f57565b6001546001600160a01b03163303610bcb57565b60405163118cdaa760e01b8152336004820152602490fd5b15610bea57565b60405162461bcd60e51b815260206004820152601d60248201527f496e76616c696420746f6c6c20636f6e747261637420616464726573730000006044820152606490fd5b15610c3657565b60405162461bcd60e51b815260206004820152601660248201527515d85b1b195d081b9bdd081a5b9a5d1a585b1a5e995960521b6044820152606490fd5b91908201809211610c8157565b634e487b7160e01b5f52601160045260245ffd5b60ff60015460a01c16610ca457565b60405163d93c066560e01b8152600490fd5b60025f5414610cc55760025f55565b604051633ee5aeb560e01b8152600490fd5b15610cde57565b60405162461bcd60e51b815260206004820152601b60248201527f496e73756666696369656e742077616c6c65742062616c616e636500000000006044820152606490fd5b3d15610d43573d90610d37610b5e83610b33565b9182523d5f602084013e565b606090565b15610d4f57565b60405162461bcd60e51b815260206004820152601960248201527f496e76616c6964207769746864726177616c20616d6f756e74000000000000006044820152606490fdfea26469706673582212202813bb0a0451b5085c3595eb8531421beec93df6083667126641fb6f21a3c4a064736f6c63430008140033a264697066735822122061f54438a6b91f880e1ad201e61cd0b66fc95b2a0ee8e4228d79591cb39e255464736f6c63430008140033","linkReferences":{}},"methodIdentifiers":{"authorizedDeployers(address)":"d42ab69c","deployTopUpWallet(address)":"c769c481","deployTopUpWalletsBatch(address[])":"0b111898","deployedWallets(uint256)":"8455c423","getAllDeployedWallets()":"cb14aecc","getDeployedWalletsPaginated(uint256,uint256)":"b57e02cf","getTotalDeployedWallets()":"2f9ece04","getUserTopUpWallet(address)":"63436c69","getUserWalletInfo(address)":"900c564b","hasTopUpWallet(address)":"40022ad7","isDeployedWallet(address)":"5c4599b2","owner()":"8da5cb5b","pause()":"8456cb59","paused()":"5c975abb","renounceOwnership()":"715018a6","setDeployerAuthorization(address,bool)":"94646e5a","tollCollectionContract()":"08f9bb07","transferOwnership(address)":"f2fde38b","unpause()":"3f4ba83a","updateTollContract(address)":"568d372b","userToWallet(address)":"9769dfb5"},"id":36}