{"abi":[{"type":"constructor","inputs":[{"name":"_paymentToken","type":"address","internalType":"address"},{"name":"_initialTollRate","type":"uint256","internalType":"uint256"},{"name":"_topUpWalletFactory","type":"address","internalType":"address"}],"stateMutability":"nonpayable"},{"type":"function","name":"authorizeTopUpWalletFromFactory","inputs":[{"name":"topUpWallet","type":"address","internalType":"address"}],"outputs":[],"stateMutability":"nonpayable"},{"type":"function","name":"authorizedOperators","inputs":[{"name":"","type":"address","internalType":"address"}],"outputs":[{"name":"","type":"bool","internalType":"bool"}],"stateMutability":"view"},{"type":"function","name":"authorizedTopUpWallets","inputs":[{"name":"","type":"address","internalType":"address"}],"outputs":[{"name":"","type":"bool","internalType":"bool"}],"stateMutability":"view"},{"type":"function","name":"blacklistedVehicles","inputs":[{"name":"","type":"string","internalType":"string"}],"outputs":[{"name":"","type":"bool","internalType":"bool"}],"stateMutability":"view"},{"type":"function","name":"getTollTransaction","inputs":[{"name":"tollId","type":"uint256","internalType":"uint256"}],"outputs":[{"name":"","type":"tuple","internalType":"struct TollCollection.TollTransaction","components":[{"name":"payer","type":"address","internalType":"address"},{"name":"vehicleId","type":"string","internalType":"string"},{"name":"amount","type":"uint256","internalType":"uint256"},{"name":"zkProofHash","type":"bytes32","internalType":"bytes32"},{"name":"timestamp","type":"uint256","internalType":"uint256"},{"name":"isProcessed","type":"bool","internalType":"bool"}]}],"stateMutability":"view"},{"type":"function","name":"getTotalTransactions","inputs":[],"outputs":[{"name":"","type":"uint256","internalType":"uint256"}],"stateMutability":"view"},{"type":"function","name":"getTotalVehicles","inputs":[],"outputs":[{"name":"","type":"uint256","internalType":"uint256"}],"stateMutability":"view"},{"type":"function","name":"getUserTopUpWallet","inputs":[{"name":"user","type":"address","internalType":"address"}],"outputs":[{"name":"walletAddress","type":"address","internalType":"address"}],"stateMutability":"view"},{"type":"function","name":"getUserTopUpWalletBalance","inputs":[{"name":"user","type":"address","internalType":"address"}],"outputs":[{"name":"balance","type":"uint256","internalType":"uint256"}],"stateMutability":"view"},{"type":"function","name":"getUserVehicles","inputs":[{"name":"user","type":"address","internalType":"address"}],"outputs":[{"name":"","type":"string[]","internalType":"string[]"}],"stateMutability":"view"},{"type":"function","name":"getVehicle","inputs":[{"name":"vehicleId","type":"string","internalType":"string"}],"outputs":[{"name":"","type":"tuple","internalType":"struct TollCollection.Vehicle","components":[{"name":"owner","type":"address","internalType":"address"},{"name":"vehicleId","type":"string","internalType":"string"},{"name":"isActive","type":"bool","internalType":"bool"},{"name":"isBlacklisted","type":"bool","internalType":"bool"},{"name":"registrationTime","type":"uint256","internalType":"uint256"},{"name":"lastTollTime","type":"uint256","internalType":"uint256"}]}],"stateMutability":"view"},{"type":"function","name":"hasUserTopUpWallet","inputs":[{"name":"user","type":"address","internalType":"address"}],"outputs":[{"name":"hasWallet","type":"bool","internalType":"bool"}],"stateMutability":"view"},{"type":"function","name":"isTopUpWalletAuthorized","inputs":[{"name":"topUpWallet","type":"address","internalType":"address"}],"outputs":[{"name":"isAuthorized","type":"bool","internalType":"bool"}],"stateMutability":"view"},{"type":"function","name":"owner","inputs":[],"outputs":[{"name":"","type":"address","internalType":"address"}],"stateMutability":"view"},{"type":"function","name":"pause","inputs":[],"outputs":[],"stateMutability":"nonpayable"},{"type":"function","name":"paused","inputs":[],"outputs":[{"name":"","type":"bool","internalType":"bool"}],"stateMutability":"view"},{"type":"function","name":"paymentToken","inputs":[],"outputs":[{"name":"","type":"address","internalType":"contract IERC20"}],"stateMutability":"view"},{"type":"function","name":"processTollPayment","inputs":[{"name":"vehicleId","type":"string","internalType":"string"},{"name":"zkProofHash","type":"bytes32","internalType":"bytes32"},{"name":"amount","type":"uint256","internalType":"uint256"}],"outputs":[],"stateMutability":"nonpayable"},{"type":"function","name":"processTollPaymentFromTopUpWallet","inputs":[{"name":"vehicleId","type":"string","internalType":"string"},{"name":"zkProofHash","type":"bytes32","internalType":"bytes32"},{"name":"amount","type":"uint256","internalType":"uint256"}],"outputs":[],"stateMutability":"nonpayable"},{"type":"function","name":"registerVehicle","inputs":[{"name":"vehicleId","type":"string","internalType":"string"},{"name":"owner","type":"address","internalType":"address"}],"outputs":[],"stateMutability":"nonpayable"},{"type":"function","name":"removeVehicle","inputs":[{"name":"vehicleId","type":"string","internalType":"string"}],"outputs":[],"stateMutability":"nonpayable"},{"type":"function","name":"renounceOwnership","inputs":[],"outputs":[],"stateMutability":"nonpayable"},{"type":"function","name":"setOperatorAuthorization","inputs":[{"name":"operator","type":"address","internalType":"address"},{"name":"isAuthorized","type":"bool","internalType":"bool"}],"outputs":[],"stateMutability":"nonpayable"},{"type":"function","name":"setTopUpWalletAuthorization","inputs":[{"name":"topUpWallet","type":"address","internalType":"address"},{"name":"isAuthorized","type":"bool","internalType":"bool"}],"outputs":[],"stateMutability":"nonpayable"},{"type":"function","name":"setVehicleBlacklistStatus","inputs":[{"name":"vehicleId","type":"string","internalType":"string"},{"name":"isBlacklisted","type":"bool","internalType":"bool"}],"outputs":[],"stateMutability":"nonpayable"},{"type":"function","name":"tollRate","inputs":[],"outputs":[{"name":"","type":"uint256","internalType":"uint256"}],"stateMutability":"view"},{"type":"function","name":"tollTransactions","inputs":[{"name":"","type":"uint256","internalType":"uint256"}],"outputs":[{"name":"payer","type":"address","internalType":"address"},{"name":"vehicleId","type":"string","internalType":"string"},{"name":"amount","type":"uint256","internalType":"uint256"},{"name":"zkProofHash","type":"bytes32","internalType":"bytes32"},{"name":"timestamp","type":"uint256","internalType":"uint256"},{"name":"isProcessed","type":"bool","internalType":"bool"}],"stateMutability":"view"},{"type":"function","name":"topUpWalletFactory","inputs":[],"outputs":[{"name":"","type":"address","internalType":"contract TopUpWalletFactory"}],"stateMutability":"view"},{"type":"function","name":"totalRevenue","inputs":[],"outputs":[{"name":"","type":"uint256","internalType":"uint256"}],"stateMutability":"view"},{"type":"function","name":"transferOwnership","inputs":[{"name":"newOwner","type":"address","internalType":"address"}],"outputs":[],"stateMutability":"nonpayable"},{"type":"function","name":"unpause","inputs":[],"outputs":[],"stateMutability":"nonpayable"},{"type":"function","name":"updateTollRate","inputs":[{"name":"newRate","type":"uint256","internalType":"uint256"}],"outputs":[],"stateMutability":"nonpayable"},{"type":"function","name":"updateVehicle","inputs":[{"name":"vehicleId","type":"string","internalType":"string"},{"name":"newOwner","type":"address","internalType":"address"}],"outputs":[],"stateMutability":"nonpayable"},{"type":"function","name":"userVehicles","inputs":[{"name":"","type":"address","internalType":"address"},{"name":"","type":"uint256","internalType":"uint256"}],"outputs":[{"name":"","type":"string","internalType":"string"}],"stateMutability":"view"},{"type":"function","name":"vehicles","inputs":[{"name":"","type":"string","internalType":"string"}],"outputs":[{"name":"owner","type":"address","internalType":"address"},{"name":"vehicleId","type":"string","internalType":"string"},{"name":"isActive","type":"bool","internalType":"bool"},{"name":"isBlacklisted","type":"bool","internalType":"bool"},{"name":"registrationTime","type":"uint256","internalType":"uint256"},{"name":"lastTollTime","type":"uint256","internalType":"uint256"}],"stateMutability":"view"},{"type":"function","name":"withdrawRevenue","inputs":[{"name":"to","type":"address","internalType":"address"},{"name":"amount","type":"uint256","internalType":"uint256"}],"outputs":[],"stateMutability":"nonpayable"},{"type":"event","name":"OwnershipTransferred","inputs":[{"name":"previousOwner","type":"address","indexed":true,"internalType":"address"},{"name":"newOwner","type":"address","indexed":true,"internalType":"address"}],"anonymous":false},{"type":"event","name":"Paused","inputs":[{"name":"account","type":"address","indexed":false,"internalType":"address"}],"anonymous":false},{"type":"event","name":"RevenueWithdrawn","inputs":[{"name":"to","type":"address","indexed":true,"internalType":"address"},{"name":"amount","type":"uint256","indexed":false,"internalType":"uint256"},{"name":"timestamp","type":"uint256","indexed":false,"internalType":"uint256"}],"anonymous":false},{"type":"event","name":"TollPaid","inputs":[{"name":"payer","type":"address","indexed":true,"internalType":"address"},{"name":"vehicleId","type":"string","indexed":false,"internalType":"string"},{"name":"amount","type":"uint256","indexed":false,"internalType":"uint256"},{"name":"tollId","type":"uint256","indexed":false,"internalType":"uint256"},{"name":"zkProofHash","type":"bytes32","indexed":false,"internalType":"bytes32"},{"name":"timestamp","type":"uint256","indexed":false,"internalType":"uint256"}],"anonymous":false},{"type":"event","name":"TollRateUpdated","inputs":[{"name":"newRate","type":"uint256","indexed":false,"internalType":"uint256"},{"name":"timestamp","type":"uint256","indexed":false,"internalType":"uint256"}],"anonymous":false},{"type":"event","name":"TopUpWalletPaymentProcessed","inputs":[{"name":"topUpWallet","type":"address","indexed":true,"internalType":"address"},{"name":"vehicleId","type":"string","indexed":false,"internalType":"string"},{"name":"amount","type":"uint256","indexed":false,"internalType":"uint256"},{"name":"tollId","type":"uint256","indexed":false,"internalType":"uint256"},{"name":"zkProofHash","type":"bytes32","indexed":false,"internalType":"bytes32"},{"name":"timestamp","type":"uint256","indexed":false,"internalType":"uint256"}],"anonymous":false},{"type":"event","name":"Unpaused","inputs":[{"name":"account","type":"address","indexed":false,"internalType":"address"}],"anonymous":false},{"type":"event","name":"VehicleBlacklisted","inputs":[{"name":"vehicleId","type":"string","indexed":false,"internalType":"string"},{"name":"isBlacklisted","type":"bool","indexed":false,"internalType":"bool"},{"name":"timestamp","type":"uint256","indexed":false,"internalType":"uint256"}],"anonymous":false},{"type":"event","name":"VehicleRegistered","inputs":[{"name":"owner","type":"address","indexed":true,"internalType":"address"},{"name":"vehicleId","type":"string","indexed":false,"internalType":"string"},{"name":"timestamp","type":"uint256","indexed":false,"internalType":"uint256"}],"anonymous":false},{"type":"event","name":"VehicleRemoved","inputs":[{"name":"owner","type":"address","indexed":true,"internalType":"address"},{"name":"vehicleId","type":"string","indexed":false,"internalType":"string"},{"name":"timestamp","type":"uint256","indexed":false,"internalType":"uint256"}],"anonymous":false},{"type":"event","name":"VehicleUpdated","inputs":[{"name":"owner","type":"address","indexed":true,"internalType":"address"},{"name":"vehicleId","type":"string","indexed":false,"internalType":"string"},{"name":"timestamp","type":"uint256","indexed":false,"internalType":"uint256"}],"anonymous":false},{"type":"error","name":"EnforcedPause","inputs":[]},{"type":"error","name":"ExpectedPause","inputs":[]},{"type":"error","name":"OwnableInvalidOwner","inputs":[{"name":"owner","type":"address","internalType":"address"}]},{"type":"error","name":"OwnableUnauthorizedAccount","inputs":[{"name":"account","type":"address","internalType":"address"}]},{"type":"error","name":"ReentrancyGuardReentrantCall","inputs":[]}],"bytecode":{"object":"0x6080346200011457601f6200279438819003918201601f19168301916001600160401b03831184841017620001185780849260609460405283398101031262000114576200004d816200012c565b620000606040602084015193016200012c565b915f91600183553315620000fb57600180546001600160a01b031980821633908117909355604080519790969591946001600160a01b0394919385929083167f8be0079c531659141344cd1fd0a4f28419497f9722a3daafe3b4186f6b6457e08980a31684600c541617600c55600a551690600d541617600d55338152600860205220600160ff198254161790556126529081620001428239f35b604051631e4fbdf760e01b815260048101849052602490fd5b5f80fd5b634e487b7160e01b5f52604160045260245ffd5b51906001600160a01b0382168203620001145756fe60806040818152600480361015610014575f80fd5b5f92833560e01c90816303df666b14611c6957508063047fd57914611b59578063181d989b14611b1b5780631fa56a90146119bf5780632433c489146118b95780633013ce291461189057806332e94149146118675780633772894f14611809578063393ff3bb146115f25780633bf20901146114be5780633d64f759146114345780633f4ba83a146113c557806343b522b0146112b8578063465e7123146111d75780634e8e3b5114610fa45780635c975abb14610f7d57806363436c6914610ee157806369056b2714610ec25780636bef95ff14610d86578063715018a614610d29578063813aa0ad14610cda5780638456cb5914610c795780638b63c26714610a0d5780638da5cb5b146109e4578063976de5c514610923578063986a129d146108915780639b1cddc514610536578063a99e408714610492578063b5c604ff14610473578063bf2d9e0b14610454578063c3a69cc614610416578063c9018b1014610385578063cc63ab0e146102f2578063da465d80146102cf578063dc20edeb146102395763f2fde38b146101ac575f80fd5b34610235576020366003190112610235576101c5611ca4565b906101ce611f20565b6001600160a01b0391821692831561021f575050600154826001600160601b0360a01b821617600155167f8be0079c531659141344cd1fd0a4f28419497f9722a3daafe3b4186f6b6457e05f80a380f35b51631e4fbdf760e01b8152908101849052602490fd5b8280fd5b503461023557602036600319011261023557610253611ca4565b600d546001600160a01b0392908316330361028c57501661027581151561233b565b825260096020528120805460ff1916600117905580f35b606490602085519162461bcd60e51b8352820152601a60248201527f4f6e6c7920666163746f72792063616e20617574686f72697a650000000000006044820152fd5b5050346102ee57816003193601126102ee57602090600a549051908152f35b5080fd5b50823461038257826003193601126103825761030c611ca4565b6001600160a01b03168152600560205282812080546024359190821015610235579061033791611ef7565b92909261037057835161036c908561035a826103538189611e66565b0383611ced565b51918291602083526020830190611d84565b0390f35b634e487b7160e01b8252819052602490fd5b80fd5b5034610235576020366003190112610235578035906103a2611f20565b81156103df575090817ff52943faa14977ad441226b091263d4cfa1142dc8113554d7aec88d0b7194b0892600a558151908152426020820152a180f35b606490602084519162461bcd60e51b83528201526011602482015270496e76616c696420746f6c6c207261746560781b6044820152fd5b5050346102ee5760203660031901126102ee5760209160ff9082906001600160a01b03610441611ca4565b1681526009855220541690519015158152f35b5050346102ee57816003193601126102ee57602090600b549051908152f35b5050346102ee57816003193601126102ee576020906002549051908152f35b508290346102ee57826003193601126102ee576104ad611ca4565b906104b6611da9565b916104bf611f20565b6001600160a01b03169081156104f357509282936104f09352600860205283209060ff801983541691151516179055565b80f35b606490602086519162461bcd60e51b8352820152601860248201527f496e76616c6964206f70657261746f72206164647265737300000000000000006044820152fd5b5090346102355761054636611df9565b9261055292919261231a565b61055a6122f9565b80519482519060209161059683860191610575818b85611d63565b89018381528990038401909820546001600160a01b03989089161515612150565b6105be60ff8551858189516105ac818389611d63565b81016007815203019020541615612195565b3389526009835260ff848a2054161561084f576105fa60ff6002865186818a516105e981838a611d63565b8101888152030190200154166121da565b610608600a5488101561221b565b610613861515612267565b8351629032ff60e51b815283818481335afa9081156107bf579088918b9161081a575b50106107cd57333b156107c95783516376e48ae360e01b81528281018890526060602482015289818061066c606482018a611d84565b8a6044830152038183335af180156107bf57610792575b50600254976106918961212e565b600255888a8651926106a284611cbe565b338452868401898152888501908c825260608601928c84528a608088019542875260a089019760018952815260068c52209651166001600160601b0360a01b8754161786555160018601906106f691612028565b51600285015551600384015551848301555115159060050190610724919060ff801983541691151516179055565b835180918651809261073592611d63565b81019282845281429403019020015583600b5490610752916122be565b600b55519283923395429261076794866122cb565b037fa5d58a8dd92237a8cc67edf14a85f91ec2e0432118b2d8bb2d4b2ebff72c392491a26001815580f35b6001600160401b03819a929a116107ac578452975f610683565b506041602492634e487b7160e01b835252fd5b85513d8c823e3d90fd5b8880fd5b50915162461bcd60e51b815291820152602260248201527f496e73756666696369656e7420746f702d75702077616c6c65742062616c616e604482015261636560f01b6064820152608490fd5b809250858092503d8311610848575b6108338183611ced565b81010312610844578790515f610636565b8980fd5b503d610829565b50915162461bcd60e51b815291820152601f60248201527f4e6f7420616e20617574686f72697a656420746f702d75702077616c6c6574006044820152606490fd5b508234610382576020366003190112610382578290823581526006602052209160018060a01b03835416918151936108d7856108d08160018501611e66565b0386611ced565b60028101549160ff6005600384015492840154930154169261090a8551978897885260c0602089015260c0880190611d84565b9486015260608501526080840152151560a08301520390f35b508234610382576020366003190112610382578135906001600160401b0382116103825750602061095a61096c9236908501611d0e565b81855193828580945193849201611d63565b8101848152030190209160018060a01b0383541691815193610995856108d08160018501611e66565b60ff6002820154926003830154920154926109c18551978897885260c0602089015260c0880190611d84565b9482821615159087015260081c1615156060850152608084015260a08301520390f35b5050346102ee57816003193601126102ee5760015490516001600160a01b039091168152602090f35b509034610235578060031936011261023557610a27611ca4565b91602492833591610a36611f20565b610a3e61231a565b6001600160a01b03918216948515610c3757600b5492838511610bfe57600c54168551936370a0823160e01b8552308486015260209485818581865afa908115610bf4578a91610bc7575b508611610b8557858103908111610b735788918591600b55604488518094819363a9059cbb60e01b83528c898401528a888401525af1908115610b69578891610b3c575b5015610b0a575050825191825242908201527fdba3075704a6834eaaf9d3215b423ea08bcf5b4e065493b54cdfba8c9203192d9190a26001815580f35b600f9060649386519362461bcd60e51b85528401528201526e151c985b9cd9995c8819985a5b1959608a1b6044820152fd5b610b5c9150843d8611610b62575b610b548183611ced565b8101906122a6565b5f610acd565b503d610b4a565b86513d8a823e3d90fd5b634e487b7160e01b8952601184528289fd5b865162461bcd60e51b8152808501869052601d818501527f496e73756666696369656e7420636f6e74726163742062616c616e63650000006044820152606490fd5b90508581813d8311610bed575b610bde8183611ced565b8101031261084457515f610a89565b503d610bd4565b88513d8c823e3d90fd5b855162461bcd60e51b815260208185015260148184015273496e73756666696369656e7420726576656e756560601b6044820152606490fd5b906019606492602087519362461bcd60e51b85528401528201527f496e76616c696420726563697069656e742061646472657373000000000000006044820152fd5b5050346102ee57816003193601126102ee5760207f62e78cea01bee320cd4e420270b5ea74000d11b0c9f74754ebdbfc544b05a25891610cb7611f20565b610cbf6122f9565b6001805460ff60a01b1916600160a01b17905551338152a180f35b509134610382576020366003190112610382578235906001600160401b0382116103825750610d14602061095a819560ff94369101611d0e565b81016007815203019020541690519015158152f35b8334610382578060031936011261038257610d42611f20565b600180546001600160a01b0319811690915581906001600160a01b03167f8be0079c531659141344cd1fd0a4f28419497f9722a3daafe3b4186f6b6457e08280a380f35b50903461023557610d9636611db8565b92819392919233865260209485926008845260ff85892054168015610eae575b610dbf90611f4c565b83855183519482850195610dd4818489611d63565b82018481528290039099019020546001600160a01b03988991610dfa9083161515612150565b1697610e07891515611f89565b865182818651610e1881838b611d63565b81018681520301902054169386519283809286518092610e3792611d63565b82019081520301902080546001600160a01b03191687179055610e59916124af565b838552600581528282862090610e6e916120e9565b81519282849384528301610e8191611d84565b904290830152037feaccb1380fa9e022453ed992ac12684ff941ab3d98fb995e5256b26dec74792691a280f35b506001546001600160a01b03163314610db6565b5050346102ee57816003193601126102ee576020906003549051908152f35b509034610235576020366003190112610235576024906020610f01611ca4565b600d5483516363436c6960e01b81526001600160a01b039283169681019690965290938591829086165afa928315610f735760209493610f44575b505191168152f35b610f65919350843d8111610f6c575b610f5d8183611ced565b8101906123b8565b915f610f3c565b503d610f53565b81513d86823e3d90fd5b5050346102ee57816003193601126102ee5760209060ff60015460a01c1690519015158152f35b50903461023557610fb436611df9565b92610fc092919261231a565b610fc86122f9565b805194825190602091610fe383860191610575818b85611d63565b610ff960ff8551858189516105ac818389611d63565b61101160ff6002865186818a516105e981838a611d63565b61101f600a5488101561221b565b61102a861515612267565b888389600c541660648751809481936323b872dd60e01b835233898401523060248401528d60448401525af19081156107bf578a916111ba575b501561117857600254976110778961212e565b600255888a86519261108884611cbe565b338452868401898152888501908c825260608601928c84528a608088019542875260a089019760018952815260068c52209651166001600160601b0360a01b8754161786555160018601906110dc91612028565b5160028501555160038401555184830155511515906005019061110a919060ff801983541691151516179055565b835180918651809261111b92611d63565b81019282845281429403019020015583600b5490611138916122be565b600b55519283923395429261114d94866122cb565b037f8dfb71c8c553a0afcee8567ca60508b6d541d55d96e6dc2b4d641e576734e8ce91a26001815580f35b50915162461bcd60e51b815291820152601760248201527f5061796d656e74207472616e73666572206661696c65640000000000000000006044820152606490fd5b6111d19150843d8611610b6257610b548183611ced565b5f611064565b5082346103825760203660031901126103825782906111f4612387565b50823581526006602052209180519161120c83611cbe565b83546001600160a01b039081168452825190949091611239836112328160018601611e66565b0384611ced565b6020850192835261129960028301549480870195865260c060ff600560038701549560608b019687528701549660808b019788520154169560a0890196151587528251998a9960208b52511660208a0152519188015260e0870190611d84565b935160608601525160808501525160a084015251151560c08301520390f35b508290346102ee5760209081600319360112610235576001600160a01b036112de611ca4565b16835260058252838320918254916001600160401b0383116113b25750929084519061130f858260051b0183611ced565b8082528482018094845285842084915b83831061138057505050508451938085019181865251809252858501958260051b8601019392955b8287106113545785850386f35b909192938280611370600193603f198a82030186528851611d84565b9601920196019592919092611347565b60018881928b9a97989a516113a0816113998189611e66565b0382611ced565b8152019201920191909694939661131f565b634e487b7160e01b855260419052602484fd5b50346102355782600319360112610235576113de611f20565b6001549060ff8260a01c1615611426575060ff60a01b1916600155513381527f5db9ee0a495bf2e6ff9c91a7834c1ba4fdd244a5e8aa4e537bd38aeae4b073aa90602090a180f35b8251638dfc202b60e01b8152fd5b509034610235576020366003190112610235576020611451611ca4565b600d5483516340022ad760e01b81526001600160a01b039283169581019590955284916024918391165afa9182156114b45760209392611495575b50519015158152f35b6114ad919250833d8111610b6257610b548183611ced565b905f61148c565b81513d85823e3d90fd5b509034610235576020806003193601126115ee578235916001600160401b0383116115ea576115117f6b189859c7815b6f9e76dfa4b88f8acb69fe33726dedb4664649fb5d2bcda7c19336908601611d0e565b913386526008815260ff828720541680156115d6575b61153090611f4c565b600261159b82845186519061156e8389019261154d818486611d63565b82018b81528290038401909120546001600160a01b03919082161515612150565b865183818a5161157f818388611d63565b81018d8152030190205416988651809481938a51928391611d63565b82019081520301902001805460ff191690556115b783866124af565b6115ca8251938385948552840190611d84565b9042908301520390a280f35b506001546001600160a01b03163314611527565b8480fd5b8380fd5b508290346102ee5761160336611db8565b9333845260206008815260ff828620541680156117f5575b61162490611f4c565b81518351968285019761163881848b611d63565b82018681528290038301909120546001600160a01b03919082166117b257811694611664861515611f89565b84511561177a57868661173c87876117087fb85f0e667348bb57871774bfd0417c75c77e9d3c2097c1b8b7084c450484bd939b9c9d82519889966116a788611cbe565b87526116e28b80890193878552868a01976001895260608b01978c895260a060808d019c8d429052019c8d5251938492839251928391611d63565b81018c81520301902099518a546001600160a01b03191691161789555160018901612028565b6117256002880192511515839060ff801983541691151516179055565b51815461ff00191690151560081b61ff0016179055565b5160038401555191015584865260058152611759838388206120e9565b61176460035461212e565b6003556115ca8251938385948552840190611d84565b835162461bcd60e51b81529081018390526012602482015271125b9d985b1a59081d995a1a58db1948125160721b6044820152606490fd5b835162461bcd60e51b8152808701849052601a60248201527f56656869636c6520616c726561647920726567697374657265640000000000006044820152606490fd5b506001546001600160a01b0316331461161b565b5050346102ee57806003193601126102ee576104f090611827611ca4565b90611830611da9565b91611839611f20565b6001600160a01b031661184d81151561233b565b8452600960205283209060ff801983541691151516179055565b5050346102ee57816003193601126102ee57600d5490516001600160a01b039091168152602090f35b5050346102ee57816003193601126102ee57600c5490516001600160a01b039091168152602090f35b5090346102355760209283600319360112610382576118d6611ca4565b600d5483516363436c6960e01b81526001600160a01b03928316818701529294859390929187908290602490829086165afa9081156119b557908792918591611998575b50168061192c575b5050505051908152f35b909192938095505192838092629032ff60e51b82525afa91821561198d57809261195d575b5050905f808481611922565b9091508382813d8311611986575b6119758183611ced565b810103126103825750515f80611951565b503d61196b565b8351903d90823e3d90fd5b6119af9150833d8511610f6c57610f5d8183611ced565b5f61191a565b85513d86823e3d90fd5b5034610235578160031936011261023557803590836001600160401b03831161038257837f27bec40e15bd1d4d1d00f908e211befae8425225d6cd6ade6f62983d04b9618694611ae2611a18611af59636908701611d0e565b946002611ac0611a26611da9565b96879333825260ff6020978893600885522054168015611b07575b611a4a90611f4c565b875190611a7f8b5192848d0193611a62818387611d63565b810183815281900385019020546001600160a01b03161515612150565b611ab0868c858c51809251611a9581838a611d63565b810160078152030190209060ff801983541691151516179055565b8851809481938d51928391611d63565b820190815203019020019061ff00825491151560081b169061ff001916179055565b8151948594606086526060860190611d84565b9215159084015242908301520390a180f35b506001546001600160a01b03163314611a41565b5050346102ee5760203660031901126102ee5760209160ff9082906001600160a01b03611b46611ca4565b1681526008855220541690519015158152f35b508290346102ee5760209182600319360112610382578135906001600160401b038211610382575082611b92611bad9236908501611d0e565b611b9a612387565b5081865193828580945193849201611d63565b81018481520301902091835192611bc384611cbe565b80546001600160a01b03908116855285519095611c4890611beb836112328160018801611e66565b84870192835260c06002850154938289019760ff86161515895260ff60608b019660081c161515865260038701549660808b0197885201549660a08a0197885283519a8b9a828c525116908a0152519188015260e0870190611d84565b93511515606086015251151560808501525160a08401525160c08301520390f35b849084346102355760203660031901126102355760209260ff91906001600160a01b03611c94611ca4565b1681526009855220541615158152f35b600435906001600160a01b0382168203611cba57565b5f80fd5b60c081019081106001600160401b03821117611cd957604052565b634e487b7160e01b5f52604160045260245ffd5b90601f801991011681019081106001600160401b03821117611cd957604052565b81601f82011215611cba578035906001600160401b038211611cd95760405192611d42601f8401601f191660200185611ced565b82845260208383010111611cba57815f926020809301838601378301015290565b5f5b838110611d745750505f910152565b8181015183820152602001611d65565b90602091611d9d81518092818552858086019101611d63565b601f01601f1916010190565b602435908115158203611cba57565b6040600319820112611cba57600435906001600160401b038211611cba57611de291600401611d0e565b906024356001600160a01b0381168103611cba5790565b6060600319820112611cba57600435906001600160401b038211611cba57611e2391600401611d0e565b906024359060443590565b90600182811c92168015611e5c575b6020831014611e4857565b634e487b7160e01b5f52602260045260245ffd5b91607f1691611e3d565b905f9291805491611e7683611e2e565b9182825260019384811690815f14611ed45750600114611e97575b50505050565b90919394505f52602092835f2092845f945b838610611ec057505050500101905f808080611e91565b805485870183015294019385908201611ea9565b9294505050602093945060ff191683830152151560051b0101905f808080611e91565b8054821015611f0c575f5260205f2001905f90565b634e487b7160e01b5f52603260045260245ffd5b6001546001600160a01b03163303611f3457565b60405163118cdaa760e01b8152336004820152602490fd5b15611f5357565b60405162461bcd60e51b815260206004820152600e60248201526d139bdd08185d5d1a1bdc9a5e995960921b6044820152606490fd5b15611f9057565b60405162461bcd60e51b8152602060048201526015602482015274496e76616c6964206f776e6572206164647265737360581b6044820152606490fd5b818110611fd8575050565b5f8155600101611fcd565b9190601f8111611ff257505050565b61201c925f5260205f20906020601f840160051c8301931061201e575b601f0160051c0190611fcd565b565b909150819061200f565b91909182516001600160401b038111611cd95761204f816120498454611e2e565b84611fe3565b602080601f83116001146120895750819293945f9261207e575b50508160011b915f199060031b1c1916179055565b015190505f80612069565b90601f19831695845f52825f20925f905b8882106120d1575050836001959697106120b9575b505050811b019055565b01515f1960f88460031b161c191690555f80806120af565b8060018596829496860151815501950193019061209a565b805468010000000000000000811015611cd95761210b91600182018155611ef7565b91909161211b5761201c91612028565b634e487b7160e01b5f525f60045260245ffd5b5f19811461213c5760010190565b634e487b7160e01b5f52601160045260245ffd5b1561215757565b60405162461bcd60e51b815260206004820152601660248201527515995a1a58db19481b9bdd081c9959da5cdd195c995960521b6044820152606490fd5b1561219c57565b60405162461bcd60e51b815260206004820152601660248201527515995a1a58db19481a5cc8189b1858dadb1a5cdd195960521b6044820152606490fd5b156121e157565b60405162461bcd60e51b815260206004820152601260248201527156656869636c65206e6f742061637469766560701b6044820152606490fd5b1561222257565b60405162461bcd60e51b815260206004820152601b60248201527f496e73756666696369656e74207061796d656e7420616d6f756e7400000000006044820152606490fd5b1561226e57565b60405162461bcd60e51b815260206004820152601060248201526f24b73b30b634b2102d2590383937b7b360811b6044820152606490fd5b90816020910312611cba57518015158103611cba5790565b9190820180921161213c57565b9195949390926122e560809460a0855260a0850190611d84565b966020840152604083015260608201520152565b60ff60015460a01c1661230857565b60405163d93c066560e01b8152600490fd5b60025f54146123295760025f55565b604051633ee5aeb560e01b8152600490fd5b1561234257565b60405162461bcd60e51b815260206004820152601d60248201527f496e76616c696420746f702d75702077616c6c657420616464726573730000006044820152606490fd5b6040519061239482611cbe565b5f60a083828152606060208201528260408201528260608201528260808201520152565b90816020910312611cba57516001600160a01b0381168103611cba5790565b908082146124ab576123e98154611e2e565b906001600160401b038211611cd957819061240e826124088654611e2e565b86611fe3565b5f90601f8311600114612441575f926124365750508160011b915f199060031b1c1916179055565b015490505f80612069565b81526020808220858352818320935090601f1985169083905b82821061249257505090846001959493921061247a57505050811b019055565b01545f1960f88460031b161c191690555f80806120af565b849581929585015481556001809101960194019061245a565b5050565b6001600160a01b03165f90815260056020818152604080842092939190825b845480821015612612576113996124f46124e88489611ef7565b50855192838092611e66565b8481519101208851858a012014612514575061250f9061212e565b6124ce565b92939495965090505f19918281019081116125fe5761253661253e9187611ef7565b509186611ef7565b6125ea579061254c916123d7565b835480156125d65701936125608585611ef7565b9190916125c2576125718254611e2e565b9081612580575b505050505055565b8490601f8084116001146125a057505050509050555b5f80808080612578565b84939583956125bb945285209501901c840160018501611fcd565b5555612596565b634e487b7160e01b84526004849052602484fd5b634e487b7160e01b84526031600452602484fd5b634e487b7160e01b85526004859052602485fd5b634e487b7160e01b85526011600452602485fd5b505050505050505056fea2646970667358221220f9c0c329d7d3659fc8adc0be9e4b83456b18de0c65367c152a7096c98137226c64736f6c63430008140033","linkReferences":{}},"methodIdentifiers":{"authorizeTopUpWalletFromFactory(address)":"dc20edeb","authorizedOperators(address)":"181d989b","authorizedTopUpWallets(address)":"03df666b","blacklistedVehicles(string)":"813aa0ad","getTollTransaction(uint256)":"465e7123","getTotalTransactions()":"b5c604ff","getTotalVehicles()":"69056b27","getUserTopUpWallet(address)":"63436c69","getUserTopUpWalletBalance(address)":"2433c489","getUserVehicles(address)":"43b522b0","getVehicle(string)":"047fd579","hasUserTopUpWallet(address)":"3d64f759","isTopUpWalletAuthorized(address)":"c3a69cc6","owner()":"8da5cb5b","pause()":"8456cb59","paused()":"5c975abb","paymentToken()":"3013ce29","processTollPayment(string,bytes32,uint256)":"4e8e3b51","processTollPaymentFromTopUpWallet(string,bytes32,uint256)":"9b1cddc5","registerVehicle(string,address)":"393ff3bb","removeVehicle(string)":"3bf20901","renounceOwnership()":"715018a6","setOperatorAuthorization(address,bool)":"a99e4087","setTopUpWalletAuthorization(address,bool)":"3772894f","setVehicleBlacklistStatus(string,bool)":"1fa56a90","tollRate()":"da465d80","tollTransactions(uint256)":"986a129d","topUpWalletFactory()":"32e94149","totalRevenue()":"bf2d9e0b","transferOwnership(address)":"f2fde38b","unpause()":"3f4ba83a","updateTollRate(uint256)":"c9018b10","updateVehicle(string,address)":"6bef95ff","userVehicles(address,uint256)":"cc63ab0e","vehicles(string)":"976de5c5","withdrawRevenue(address,uint256)":"8b63c267"},"id":34}