{"abi":[{"type":"constructor","inputs":[{"name":"_paymentToken","type":"address","internalType":"address"},{"name":"_initialTollRate","type":"uint256","internalType":"uint256"}],"stateMutability":"nonpayable"},{"type":"function","name":"authorizedOperators","inputs":[{"name":"","type":"address","internalType":"address"}],"outputs":[{"name":"","type":"bool","internalType":"bool"}],"stateMutability":"view"},{"type":"function","name":"blacklistedVehicles","inputs":[{"name":"","type":"string","internalType":"string"}],"outputs":[{"name":"","type":"bool","internalType":"bool"}],"stateMutability":"view"},{"type":"function","name":"getTollTransaction","inputs":[{"name":"tollId","type":"uint256","internalType":"uint256"}],"outputs":[{"name":"","type":"tuple","internalType":"struct TollCollection.TollTransaction","components":[{"name":"payer","type":"address","internalType":"address"},{"name":"vehicleId","type":"string","internalType":"string"},{"name":"amount","type":"uint256","internalType":"uint256"},{"name":"zkProofHash","type":"bytes32","internalType":"bytes32"},{"name":"timestamp","type":"uint256","internalType":"uint256"},{"name":"isProcessed","type":"bool","internalType":"bool"}]}],"stateMutability":"view"},{"type":"function","name":"getTotalTransactions","inputs":[],"outputs":[{"name":"","type":"uint256","internalType":"uint256"}],"stateMutability":"view"},{"type":"function","name":"getTotalVehicles","inputs":[],"outputs":[{"name":"","type":"uint256","internalType":"uint256"}],"stateMutability":"view"},{"type":"function","name":"getUserVehicles","inputs":[{"name":"user","type":"address","internalType":"address"}],"outputs":[{"name":"","type":"string[]","internalType":"string[]"}],"stateMutability":"view"},{"type":"function","name":"getVehicle","inputs":[{"name":"vehicleId","type":"string","internalType":"string"}],"outputs":[{"name":"","type":"tuple","internalType":"struct TollCollection.Vehicle","components":[{"name":"owner","type":"address","internalType":"address"},{"name":"vehicleId","type":"string","internalType":"string"},{"name":"isActive","type":"bool","internalType":"bool"},{"name":"isBlacklisted","type":"bool","internalType":"bool"},{"name":"registrationTime","type":"uint256","internalType":"uint256"},{"name":"lastTollTime","type":"uint256","internalType":"uint256"}]}],"stateMutability":"view"},{"type":"function","name":"owner","inputs":[],"outputs":[{"name":"","type":"address","internalType":"address"}],"stateMutability":"view"},{"type":"function","name":"pause","inputs":[],"outputs":[],"stateMutability":"nonpayable"},{"type":"function","name":"paused","inputs":[],"outputs":[{"name":"","type":"bool","internalType":"bool"}],"stateMutability":"view"},{"type":"function","name":"paymentToken","inputs":[],"outputs":[{"name":"","type":"address","internalType":"contract IERC20"}],"stateMutability":"view"},{"type":"function","name":"processTollPayment","inputs":[{"name":"vehicleId","type":"string","internalType":"string"},{"name":"zkProofHash","type":"bytes32","internalType":"bytes32"},{"name":"amount","type":"uint256","internalType":"uint256"}],"outputs":[],"stateMutability":"nonpayable"},{"type":"function","name":"registerVehicle","inputs":[{"name":"vehicleId","type":"string","internalType":"string"},{"name":"owner","type":"address","internalType":"address"}],"outputs":[],"stateMutability":"nonpayable"},{"type":"function","name":"removeVehicle","inputs":[{"name":"vehicleId","type":"string","internalType":"string"}],"outputs":[],"stateMutability":"nonpayable"},{"type":"function","name":"renounceOwnership","inputs":[],"outputs":[],"stateMutability":"nonpayable"},{"type":"function","name":"setOperatorAuthorization","inputs":[{"name":"operator","type":"address","internalType":"address"},{"name":"isAuthorized","type":"bool","internalType":"bool"}],"outputs":[],"stateMutability":"nonpayable"},{"type":"function","name":"setVehicleBlacklistStatus","inputs":[{"name":"vehicleId","type":"string","internalType":"string"},{"name":"isBlacklisted","type":"bool","internalType":"bool"}],"outputs":[],"stateMutability":"nonpayable"},{"type":"function","name":"tollRate","inputs":[],"outputs":[{"name":"","type":"uint256","internalType":"uint256"}],"stateMutability":"view"},{"type":"function","name":"tollTransactions","inputs":[{"name":"","type":"uint256","internalType":"uint256"}],"outputs":[{"name":"payer","type":"address","internalType":"address"},{"name":"vehicleId","type":"string","internalType":"string"},{"name":"amount","type":"uint256","internalType":"uint256"},{"name":"zkProofHash","type":"bytes32","internalType":"bytes32"},{"name":"timestamp","type":"uint256","internalType":"uint256"},{"name":"isProcessed","type":"bool","internalType":"bool"}],"stateMutability":"view"},{"type":"function","name":"totalRevenue","inputs":[],"outputs":[{"name":"","type":"uint256","internalType":"uint256"}],"stateMutability":"view"},{"type":"function","name":"transferOwnership","inputs":[{"name":"newOwner","type":"address","internalType":"address"}],"outputs":[],"stateMutability":"nonpayable"},{"type":"function","name":"unpause","inputs":[],"outputs":[],"stateMutability":"nonpayable"},{"type":"function","name":"updateTollRate","inputs":[{"name":"newRate","type":"uint256","internalType":"uint256"}],"outputs":[],"stateMutability":"nonpayable"},{"type":"function","name":"updateVehicle","inputs":[{"name":"vehicleId","type":"string","internalType":"string"},{"name":"newOwner","type":"address","internalType":"address"}],"outputs":[],"stateMutability":"nonpayable"},{"type":"function","name":"userVehicles","inputs":[{"name":"","type":"address","internalType":"address"},{"name":"","type":"uint256","internalType":"uint256"}],"outputs":[{"name":"","type":"string","internalType":"string"}],"stateMutability":"view"},{"type":"function","name":"vehicles","inputs":[{"name":"","type":"string","internalType":"string"}],"outputs":[{"name":"owner","type":"address","internalType":"address"},{"name":"vehicleId","type":"string","internalType":"string"},{"name":"isActive","type":"bool","internalType":"bool"},{"name":"isBlacklisted","type":"bool","internalType":"bool"},{"name":"registrationTime","type":"uint256","internalType":"uint256"},{"name":"lastTollTime","type":"uint256","internalType":"uint256"}],"stateMutability":"view"},{"type":"function","name":"withdrawRevenue","inputs":[{"name":"to","type":"address","internalType":"address"},{"name":"amount","type":"uint256","internalType":"uint256"}],"outputs":[],"stateMutability":"nonpayable"},{"type":"event","name":"OwnershipTransferred","inputs":[{"name":"previousOwner","type":"address","indexed":true,"internalType":"address"},{"name":"newOwner","type":"address","indexed":true,"internalType":"address"}],"anonymous":false},{"type":"event","name":"Paused","inputs":[{"name":"account","type":"address","indexed":false,"internalType":"address"}],"anonymous":false},{"type":"event","name":"RevenueWithdrawn","inputs":[{"name":"to","type":"address","indexed":true,"internalType":"address"},{"name":"amount","type":"uint256","indexed":false,"internalType":"uint256"},{"name":"timestamp","type":"uint256","indexed":false,"internalType":"uint256"}],"anonymous":false},{"type":"event","name":"TollPaid","inputs":[{"name":"payer","type":"address","indexed":true,"internalType":"address"},{"name":"vehicleId","type":"string","indexed":false,"internalType":"string"},{"name":"amount","type":"uint256","indexed":false,"internalType":"uint256"},{"name":"tollId","type":"uint256","indexed":false,"internalType":"uint256"},{"name":"zkProofHash","type":"bytes32","indexed":false,"internalType":"bytes32"},{"name":"timestamp","type":"uint256","indexed":false,"internalType":"uint256"}],"anonymous":false},{"type":"event","name":"TollRateUpdated","inputs":[{"name":"newRate","type":"uint256","indexed":false,"internalType":"uint256"},{"name":"timestamp","type":"uint256","indexed":false,"internalType":"uint256"}],"anonymous":false},{"type":"event","name":"Unpaused","inputs":[{"name":"account","type":"address","indexed":false,"internalType":"address"}],"anonymous":false},{"type":"event","name":"VehicleBlacklisted","inputs":[{"name":"vehicleId","type":"string","indexed":false,"internalType":"string"},{"name":"isBlacklisted","type":"bool","indexed":false,"internalType":"bool"},{"name":"timestamp","type":"uint256","indexed":false,"internalType":"uint256"}],"anonymous":false},{"type":"event","name":"VehicleRegistered","inputs":[{"name":"owner","type":"address","indexed":true,"internalType":"address"},{"name":"vehicleId","type":"string","indexed":false,"internalType":"string"},{"name":"timestamp","type":"uint256","indexed":false,"internalType":"uint256"}],"anonymous":false},{"type":"event","name":"VehicleRemoved","inputs":[{"name":"owner","type":"address","indexed":true,"internalType":"address"},{"name":"vehicleId","type":"string","indexed":false,"internalType":"string"},{"name":"timestamp","type":"uint256","indexed":false,"internalType":"uint256"}],"anonymous":false},{"type":"event","name":"VehicleUpdated","inputs":[{"name":"owner","type":"address","indexed":true,"internalType":"address"},{"name":"vehicleId","type":"string","indexed":false,"internalType":"string"},{"name":"timestamp","type":"uint256","indexed":false,"internalType":"uint256"}],"anonymous":false},{"type":"error","name":"EnforcedPause","inputs":[]},{"type":"error","name":"ExpectedPause","inputs":[]},{"type":"error","name":"OwnableInvalidOwner","inputs":[{"name":"owner","type":"address","internalType":"address"}]},{"type":"error","name":"OwnableUnauthorizedAccount","inputs":[{"name":"account","type":"address","internalType":"address"}]},{"type":"error","name":"ReentrancyGuardReentrantCall","inputs":[]}],"bytecode":{"object":"0x6080346100ea57601f611f6b38819003918201601f19168301916001600160401b038311848410176100ee5780849260409485528339810103126100ea5780516001600160a01b0391828216918290036100ea57602001515f916001835533156100d157906040929160015460018060a01b03199033828216176001558551963391167f8be0079c531659141344cd1fd0a4f28419497f9722a3daafe3b4186f6b6457e08680a3600b541617600b55600955338152600860205220600160ff19825416179055611e6890816101038239f35b604051631e4fbdf760e01b815260048101849052602490fd5b5f80fd5b634e487b7160e01b5f52604160045260245ffdfe60406080815260049081361015610014575f80fd5b5f91823560e01c8063047fd57914611596578063181d989b146115585780631fa56a90146113fc5780633013ce29146113d3578063393ff3bb146111bc5780633bf20901146110885780633f4ba83a1461101957806343b522b014610f0c578063465e712314610e2b5780634e8e3b5114610a7d5780635c975abb14610a5657806369056b2714610a375780636bef95ff146108fb578063715018a61461089e578063813aa0ad1461084f5780638456cb59146107ee5780638b63c2671461057e5780638da5cb5b14610555578063976de5c514610494578063986a129d14610402578063a99e40871461035e578063b5c604ff1461033f578063bf2d9e0b14610320578063c9018b101461028f578063cc63ab0e146101fc578063da465d80146101d95763f2fde38b14610147575f80fd5b346101d55760203660031901126101d557610160611795565b906101696118ed565b6001600160a01b039182169283156101bf575050600154826bffffffffffffffffffffffff60a01b821617600155167f8be0079c531659141344cd1fd0a4f28419497f9722a3daafe3b4186f6b6457e08380a380f35b51631e4fbdf760e01b8152908101849052602490fd5b8280fd5b5050346101f857816003193601126101f8576020906009549051908152f35b5080fd5b50823461028c578260031936011261028c57610216611795565b6001600160a01b031681526005602052828120805460243591908210156101d55790610241916118c4565b92909261027a57835161027690856102648261025d8189611833565b03836116d5565b51918291602083526020830190611770565b0390f35b634e487b7160e01b8252819052602490fd5b80fd5b50346101d55760203660031901126101d5578035906102ac6118ed565b81156102e9575090817ff52943faa14977ad441226b091263d4cfa1142dc8113554d7aec88d0b7194b08926009558151908152426020820152a180f35b606490602084519162461bcd60e51b83528201526011602482015270496e76616c696420746f6c6c207261746560781b6044820152fd5b5050346101f857816003193601126101f857602090600a549051908152f35b5050346101f857816003193601126101f8576020906002549051908152f35b508290346101f857826003193601126101f857610379611795565b906103826117ab565b9161038b6118ed565b6001600160a01b03169081156103bf57509282936103bc9352600860205283209060ff801983541691151516179055565b80f35b606490602086519162461bcd60e51b8352820152601860248201527f496e76616c6964206f70657261746f72206164647265737300000000000000006044820152fd5b50823461028c57602036600319011261028c578290823581526006602052209160018060a01b0383541691815193610448856104418160018501611833565b03866116d5565b60028101549160ff6005600384015492840154930154169261047b8551978897885260c0602089015260c0880190611770565b9486015260608501526080840152151560a08301520390f35b50823461028c57602036600319011261028c578135906001600160401b03821161028c575060206104cb6104dd92369085016116f6565b8185519382858094519384920161174f565b8101848152030190209160018060a01b0383541691815193610506856104418160018501611833565b60ff6002820154926003830154920154926105328551978897885260c0602089015260c0880190611770565b9482821615159087015260081c1615156060850152608084015260a08301520390f35b5050346101f857816003193601126101f85760015490516001600160a01b039091168152602090f35b5090346101d557806003193601126101d557610598611795565b916024928335916105a76118ed565b6105af611b9b565b6001600160a01b039182169485156107ac57600a549283851161077357600b54168551936370a0823160e01b8552308486015260209485818581865afa908115610769578a91610738575b5086116106f6578581039081116106e45788918591600a55604488518094819363a9059cbb60e01b83528c898401528a888401525af19081156106da5788916106ad575b501561067b575050825191825242908201527fdba3075704a6834eaaf9d3215b423ea08bcf5b4e065493b54cdfba8c9203192d9190a26001815580f35b600f9060649386519362461bcd60e51b85528401528201526e151c985b9cd9995c8819985a5b1959608a1b6044820152fd5b6106cd9150843d86116106d3575b6106c581836116d5565b810190611b62565b5f61063e565b503d6106bb565b86513d8a823e3d90fd5b634e487b7160e01b8952601184528289fd5b865162461bcd60e51b8152808501869052601d818501527f496e73756666696369656e7420636f6e74726163742062616c616e63650000006044820152606490fd5b90508581813d8311610762575b61074f81836116d5565b8101031261075e57515f6105fa565b8980fd5b503d610745565b88513d8c823e3d90fd5b855162461bcd60e51b815260208185015260148184015273496e73756666696369656e7420726576656e756560601b6044820152606490fd5b906019606492602087519362461bcd60e51b85528401528201527f496e76616c696420726563697069656e742061646472657373000000000000006044820152fd5b5050346101f857816003193601126101f85760207f62e78cea01bee320cd4e420270b5ea74000d11b0c9f74754ebdbfc544b05a2589161082c6118ed565b610834611b7a565b6001805460ff60a01b1916600160a01b17905551338152a180f35b50913461028c57602036600319011261028c578235906001600160401b03821161028c575061088960206104cb819560ff943691016116f6565b81016007815203019020541690519015158152f35b833461028c578060031936011261028c576108b76118ed565b600180546001600160a01b0319811690915581906001600160a01b03167f8be0079c531659141344cd1fd0a4f28419497f9722a3daafe3b4186f6b6457e08280a380f35b5090346101d55761090b366117ba565b92819392919233865260209485926008845260ff85892054168015610a23575b61093490611919565b8385518351948285019561094981848961174f565b82018481528290039099019020546001600160a01b0398899161096f9083161515611b1d565b169761097c891515611956565b86518281865161098d81838b61174f565b810186815203019020541693865192838092865180926109ac9261174f565b82019081520301902080546001600160a01b031916871790556109ce91611cc5565b8385526005815282828620906109e391611ab6565b815192828493845283016109f691611770565b904290830152037feaccb1380fa9e022453ed992ac12684ff941ab3d98fb995e5256b26dec74792691a280f35b506001546001600160a01b0316331461092b565b5050346101f857816003193601126101f8576020906003549051908152f35b5050346101f857816003193601126101f85760209060ff60015460a01c1690519015158152f35b509190346101f85760603660031901126101f85782356001600160401b0381116101d557610aae90369085016116f6565b6024938435906044938435610ac1611b9b565b610ac9611b7a565b8151928551602097610b0489890192610ae381898661174f565b87018481528790038a01909620546001600160a01b03969087161515611b1d565b60ff85518a818b51610b1781838961174f565b810160078152030190205416610df25760ff600286518b818c51610b3c81838a61174f565b81018881520301902001541615610dbd576009548410610d7d578615610d4a5789898c606489600b541691895194859384926323b872dd60e01b8452338b85015230908401528a888401525af1908115610d40578b91610d23575b5015610ce3575060025494610bab86611afb565b6002558589888c885194610bbe866116a6565b338652838601908d82528a808801938b855260608901958652608089019642885260a08a019860018a52825260069052209651166bffffffffffffffffffffffff60a01b875416178655516001860190610c17916119f5565b51600285015551600384015551848301555115159060050190610c45919060ff801983541691151516179055565b818451809289518092610c579261174f565b82019181835289814294030190200155600a5490828201809211610cd157507f8dfb71c8c553a0afcee8567ca60508b6d541d55d96e6dc2b4d641e576734e8ce96979850600a55610cb282519560a0875260a0870190611770565b9685015283015260608201524260808201528033930390a26001815580f35b634e487b7160e01b8952601190528888fd5b827f5061796d656e74207472616e73666572206661696c656400000000000000000060649260178e8d8a519562461bcd60e51b8752860152840152820152fd5b610d3a91508a3d8c116106d3576106c581836116d5565b5f610b97565b86513d8d823e3d90fd5b826f24b73b30b634b2102d2590383937b7b360811b60649260108e8d8a519562461bcd60e51b8752860152840152820152fd5b827f496e73756666696369656e74207061796d656e7420616d6f756e740000000000606492601b8e8d8a519562461bcd60e51b8752860152840152820152fd5b827156656869636c65206e6f742061637469766560701b60649260128e8d8a519562461bcd60e51b8752860152840152820152fd5b827515995a1a58db19481a5cc8189b1858dadb1a5cdd195960521b60649260168e8d8a519562461bcd60e51b8752860152840152820152fd5b50823461028c57602036600319011261028c578290610e48611bbc565b508235815260066020522091805191610e60836116a6565b83546001600160a01b039081168452825190949091610e8d83610e868160018601611833565b03846116d5565b60208501928352610eed60028301549480870195865260c060ff600560038701549560608b019687528701549660808b019788520154169560a0890196151587528251998a9960208b52511660208a0152519188015260e0870190611770565b935160608601525160808501525160a084015251151560c08301520390f35b508290346101f857602090816003193601126101d5576001600160a01b03610f32611795565b16835260058252838320918254916001600160401b03831161100657509290845190610f63858260051b01836116d5565b8082528482018094845285842084915b838310610fd457505050508451938085019181865251809252858501958260051b8601019392955b828710610fa85785850386f35b909192938280610fc4600193603f198a82030186528851611770565b9601920196019592919092610f9b565b60018881928b9a97989a51610ff481610fed8189611833565b03826116d5565b81520192019201919096949396610f73565b634e487b7160e01b855260419052602484fd5b50346101d557826003193601126101d5576110326118ed565b6001549060ff8260a01c161561107a575060ff60a01b1916600155513381527f5db9ee0a495bf2e6ff9c91a7834c1ba4fdd244a5e8aa4e537bd38aeae4b073aa90602090a180f35b8251638dfc202b60e01b8152fd5b5090346101d5576020806003193601126111b8578235916001600160401b0383116111b4576110db7f6b189859c7815b6f9e76dfa4b88f8acb69fe33726dedb4664649fb5d2bcda7c193369086016116f6565b913386526008815260ff828720541680156111a0575b6110fa90611919565b60026111658284518651906111388389019261111781848661174f565b82018b81528290038401909120546001600160a01b03919082161515611b1d565b865183818a5161114981838861174f565b81018d8152030190205416988651809481938a5192839161174f565b82019081520301902001805460ff191690556111818386611cc5565b6111948251938385948552840190611770565b9042908301520390a280f35b506001546001600160a01b031633146110f1565b8480fd5b8380fd5b508290346101f8576111cd366117ba565b9333845260206008815260ff828620541680156113bf575b6111ee90611919565b81518351968285019761120281848b61174f565b82018681528290038301909120546001600160a01b039190821661137c5781169461122e861515611956565b84511561134457868661130687876112d27fb85f0e667348bb57871774bfd0417c75c77e9d3c2097c1b8b7084c450484bd939b9c9d8251988996611271886116a6565b87526112ac8b80890193878552868a01976001895260608b01978c895260a060808d019c8d429052019c8d525193849283925192839161174f565b81018c81520301902099518a546001600160a01b031916911617895551600189016119f5565b6112ef6002880192511515839060ff801983541691151516179055565b51815461ff00191690151560081b61ff0016179055565b516003840155519101558486526005815261132383838820611ab6565b61132e600354611afb565b6003556111948251938385948552840190611770565b835162461bcd60e51b81529081018390526012602482015271125b9d985b1a59081d995a1a58db1948125160721b6044820152606490fd5b835162461bcd60e51b8152808701849052601a60248201527f56656869636c6520616c726561647920726567697374657265640000000000006044820152606490fd5b506001546001600160a01b031633146111e5565b5050346101f857816003193601126101f857600b5490516001600160a01b039091168152602090f35b50346101d557816003193601126101d557803590836001600160401b03831161028c57837f27bec40e15bd1d4d1d00f908e211befae8425225d6cd6ade6f62983d04b961869461151f61145561153296369087016116f6565b9460026114fd6114636117ab565b96879333825260ff6020978893600885522054168015611544575b61148790611919565b8751906114bc8b5192848d019361149f81838761174f565b810183815281900385019020546001600160a01b03161515611b1d565b6114ed868c858c518092516114d281838a61174f565b810160078152030190209060ff801983541691151516179055565b8851809481938d5192839161174f565b820190815203019020019061ff00825491151560081b169061ff001916179055565b8151948594606086526060860190611770565b9215159084015242908301520390a180f35b506001546001600160a01b0316331461147e565b5050346101f85760203660031901126101f85760209160ff9082906001600160a01b03611583611795565b1681526008855220541690519015158152f35b508290346101f8576020918260031936011261028c578135906001600160401b03821161028c5750826115cf6115ea92369085016116f6565b6115d7611bbc565b508186519382858094519384920161174f565b81018481520301902091835192611600846116a6565b80546001600160a01b039081168552855190956116859061162883610e868160018801611833565b84870192835260c06002850154938289019760ff86161515895260ff60608b019660081c161515865260038701549660808b0197885201549660a08a0197885283519a8b9a828c525116908a0152519188015260e0870190611770565b93511515606086015251151560808501525160a08401525160c08301520390f35b60c081019081106001600160401b038211176116c157604052565b634e487b7160e01b5f52604160045260245ffd5b90601f801991011681019081106001600160401b038211176116c157604052565b81601f8201121561174b578035906001600160401b0382116116c1576040519261172a601f8401601f1916602001856116d5565b8284526020838301011161174b57815f926020809301838601378301015290565b5f80fd5b5f5b8381106117605750505f910152565b8181015183820152602001611751565b906020916117898151809281855285808601910161174f565b601f01601f1916010190565b600435906001600160a01b038216820361174b57565b60243590811515820361174b57565b604060031982011261174b57600435906001600160401b03821161174b576117e4916004016116f6565b906024356001600160a01b038116810361174b5790565b90600182811c92168015611829575b602083101461181557565b634e487b7160e01b5f52602260045260245ffd5b91607f169161180a565b905f9291805491611843836117fb565b9182825260019384811690815f146118a15750600114611864575b50505050565b90919394505f52602092835f2092845f945b83861061188d57505050500101905f80808061185e565b805485870183015294019385908201611876565b9294505050602093945060ff191683830152151560051b0101905f80808061185e565b80548210156118d9575f5260205f2001905f90565b634e487b7160e01b5f52603260045260245ffd5b6001546001600160a01b0316330361190157565b60405163118cdaa760e01b8152336004820152602490fd5b1561192057565b60405162461bcd60e51b815260206004820152600e60248201526d139bdd08185d5d1a1bdc9a5e995960921b6044820152606490fd5b1561195d57565b60405162461bcd60e51b8152602060048201526015602482015274496e76616c6964206f776e6572206164647265737360581b6044820152606490fd5b8181106119a5575050565b5f815560010161199a565b9190601f81116119bf57505050565b6119e9925f5260205f20906020601f840160051c830193106119eb575b601f0160051c019061199a565b565b90915081906119dc565b91909182516001600160401b0381116116c157611a1c81611a1684546117fb565b846119b0565b602080601f8311600114611a565750819293945f92611a4b575b50508160011b915f199060031b1c1916179055565b015190505f80611a36565b90601f19831695845f52825f20925f905b888210611a9e57505083600195969710611a86575b505050811b019055565b01515f1960f88460031b161c191690555f8080611a7c565b80600185968294968601518155019501930190611a67565b8054680100000000000000008110156116c157611ad8916001820181556118c4565b919091611ae8576119e9916119f5565b634e487b7160e01b5f525f60045260245ffd5b5f198114611b095760010190565b634e487b7160e01b5f52601160045260245ffd5b15611b2457565b60405162461bcd60e51b815260206004820152601660248201527515995a1a58db19481b9bdd081c9959da5cdd195c995960521b6044820152606490fd5b9081602091031261174b5751801515810361174b5790565b60ff60015460a01c16611b8957565b60405163d93c066560e01b8152600490fd5b60025f5414611baa5760025f55565b604051633ee5aeb560e01b8152600490fd5b60405190611bc9826116a6565b5f60a083828152606060208201528260408201528260608201528260808201520152565b90808214611cc157611bff81546117fb565b906001600160401b0382116116c1578190611c2482611c1e86546117fb565b866119b0565b5f90601f8311600114611c57575f92611c4c5750508160011b915f199060031b1c1916179055565b015490505f80611a36565b81526020808220858352818320935090601f1985169083905b828210611ca8575050908460019594939210611c9057505050811b019055565b01545f1960f88460031b161c191690555f8080611a7c565b8495819295850154815560018091019601940190611c70565b5050565b6001600160a01b03165f90815260056020818152604080842092939190825b845480821015611e2857610fed611d0a611cfe84896118c4565b50855192838092611833565b8481519101208851858a012014611d2a5750611d2590611afb565b611ce4565b92939495965090505f1991828101908111611e1457611d4c611d5491876118c4565b5091866118c4565b611e005790611d6291611bed565b83548015611dec570193611d7685856118c4565b919091611dd857611d8782546117fb565b9081611d96575b505050505055565b8490601f808411600114611db657505050509050555b5f80808080611d8e565b8493958395611dd1945285209501901c84016001850161199a565b5555611dac565b634e487b7160e01b84526004849052602484fd5b634e487b7160e01b84526031600452602484fd5b634e487b7160e01b85526004859052602485fd5b634e487b7160e01b85526011600452602485fd5b505050505050505056fea2646970667358221220005e629b2032c70ad451fc109463cc272031c4e3cd1be0c3146c145bd09d5d8864736f6c63430008140033","linkReferences":{}},"methodIdentifiers":{"authorizedOperators(address)":"181d989b","blacklistedVehicles(string)":"813aa0ad","getTollTransaction(uint256)":"465e7123","getTotalTransactions()":"b5c604ff","getTotalVehicles()":"69056b27","getUserVehicles(address)":"43b522b0","getVehicle(string)":"047fd579","owner()":"8da5cb5b","pause()":"8456cb59","paused()":"5c975abb","paymentToken()":"3013ce29","processTollPayment(string,bytes32,uint256)":"4e8e3b51","registerVehicle(string,address)":"393ff3bb","removeVehicle(string)":"3bf20901","renounceOwnership()":"715018a6","setOperatorAuthorization(address,bool)":"a99e4087","setVehicleBlacklistStatus(string,bool)":"1fa56a90","tollRate()":"da465d80","tollTransactions(uint256)":"986a129d","totalRevenue()":"bf2d9e0b","transferOwnership(address)":"f2fde38b","unpause()":"3f4ba83a","updateTollRate(uint256)":"c9018b10","updateVehicle(string,address)":"6bef95ff","userVehicles(address,uint256)":"cc63ab0e","vehicles(string)":"976de5c5","withdrawRevenue(address,uint256)":"8b63c267"},"id":33}