{"abi":[{"type":"constructor","inputs":[{"name":"_initialVerifier","type":"address","internalType":"address"}],"stateMutability":"nonpayable"},{"type":"function","name":"authorizedVerifiers","inputs":[{"name":"","type":"address","internalType":"address"}],"outputs":[{"name":"","type":"bool","internalType":"bool"}],"stateMutability":"view"},{"type":"function","name":"batchVerifyAnonAadhaarProofs","inputs":[{"name":"proofs","type":"bytes[]","internalType":"bytes[]"},{"name":"publicInputsArray","type":"uint256[][]","internalType":"uint256[][]"},{"name":"userAddresses","type":"address[]","internalType":"address[]"}],"outputs":[{"name":"results","type":"bool[]","internalType":"bool[]"}],"stateMutability":"nonpayable"},{"type":"function","name":"getVerifiedProofCount","inputs":[],"outputs":[{"name":"count","type":"uint256","internalType":"uint256"}],"stateMutability":"view"},{"type":"function","name":"isProofVerified","inputs":[{"name":"proofHash","type":"bytes32","internalType":"bytes32"}],"outputs":[{"name":"isVerified","type":"bool","internalType":"bool"}],"stateMutability":"view"},{"type":"function","name":"owner","inputs":[],"outputs":[{"name":"","type":"address","internalType":"address"}],"stateMutability":"view"},{"type":"function","name":"renounceOwnership","inputs":[],"outputs":[],"stateMutability":"nonpayable"},{"type":"function","name":"setVerifierAuthorization","inputs":[{"name":"verifier","type":"address","internalType":"address"},{"name":"isAuthorized","type":"bool","internalType":"bool"}],"outputs":[],"stateMutability":"nonpayable"},{"type":"function","name":"transferOwnership","inputs":[{"name":"newOwner","type":"address","internalType":"address"}],"outputs":[],"stateMutability":"nonpayable"},{"type":"function","name":"updateVerifierContract","inputs":[{"name":"newVerifier","type":"address","internalType":"address"}],"outputs":[],"stateMutability":"nonpayable"},{"type":"function","name":"verifiedProofs","inputs":[{"name":"","type":"bytes32","internalType":"bytes32"}],"outputs":[{"name":"","type":"bool","internalType":"bool"}],"stateMutability":"view"},{"type":"function","name":"verifierContract","inputs":[],"outputs":[{"name":"","type":"address","internalType":"address"}],"stateMutability":"view"},{"type":"function","name":"verifyAnonAadhaarProof","inputs":[{"name":"proof","type":"bytes","internalType":"bytes"},{"name":"publicInputs","type":"uint256[]","internalType":"uint256[]"},{"name":"userAddress","type":"address","internalType":"address"}],"outputs":[{"name":"isValid","type":"bool","internalType":"bool"}],"stateMutability":"nonpayable"},{"type":"event","name":"OwnershipTransferred","inputs":[{"name":"previousOwner","type":"address","indexed":true,"internalType":"address"},{"name":"newOwner","type":"address","indexed":true,"internalType":"address"}],"anonymous":false},{"type":"event","name":"ProofVerified","inputs":[{"name":"user","type":"address","indexed":true,"internalType":"address"},{"name":"proofHash","type":"bytes32","indexed":false,"internalType":"bytes32"},{"name":"isValid","type":"bool","indexed":false,"internalType":"bool"},{"name":"timestamp","type":"uint256","indexed":false,"internalType":"uint256"}],"anonymous":false},{"type":"event","name":"VerifierUpdated","inputs":[{"name":"newVerifier","type":"address","indexed":true,"internalType":"address"},{"name":"timestamp","type":"uint256","indexed":false,"internalType":"uint256"}],"anonymous":false},{"type":"error","name":"OwnableInvalidOwner","inputs":[{"name":"owner","type":"address","internalType":"address"}]},{"type":"error","name":"OwnableUnauthorizedAccount","inputs":[{"name":"account","type":"address","internalType":"address"}]}],"bytecode":{"object":"0x6080346100db57601f610b7938819003918201601f19168301916001600160401b038311848410176100df578084926020946040528339810103126100db57516001600160a01b0390818116908190036100db5733156100c3575f80546001600160a01b03198082163390811784556040805196909593167f8be0079c531659141344cd1fd0a4f28419497f9722a3daafe3b4186f6b6457e08580a36001541617600155338152600360205220600160ff19825416179055610a8590816100f48239f35b604051631e4fbdf760e01b81525f6004820152602490fd5b5f80fd5b634e487b7160e01b5f52604160045260245ffdfe6080604081815260049182361015610015575f80fd5b5f92833560e01c918263176d80c41461067c575081633885c1311461040b57816342c8fd00146103de578163715018a61461038157816375e906f1146102b35781638da5cb5b1461028b5781639a8917161461024d578163cf69568814610224578163e0dc970e146101af578163f2fde38b1461012457508063f57a76421461010a5763fab97aac146100a6575f80fd5b346101065780600319360112610106576100be6106db565b9060243591821515809303610102576100d56106f1565b6001600160a01b03166100e9811515610a03565b8352600360205282209060ff8019835416911617905580f35b8380fd5b5080fd5b503461010657816003193601126101065751908152602090f35b9050346101ab5760203660031901126101ab5761013f6106db565b906101486106f1565b6001600160a01b0391821692831561019557505082546001600160a01b0319811683178455167f8be0079c531659141344cd1fd0a4f28419497f9722a3daafe3b4186f6b6457e08380a380f35b51631e4fbdf760e01b8152908101849052602490fd5b8280fd5b505034610106576020366003190112610106577f69c0fda1a3ae4c7766c30463afc396af739dc771ca2d0fd5b26b4d4bb560714b60206101ed6106db565b6101f56106f1565b6001600160a01b03169261020a841515610a03565b600180546001600160a01b0319168517905551428152a280f35b50503461010657816003193601126101065760015490516001600160a01b039091168152602090f35b5050346101065760203660031901126101065760209160ff9082906001600160a01b036102786106db565b1681526003855220541690519015158152f35b505034610106578160031936011261010657905490516001600160a01b039091168152602090f35b9050346101ab5760603660031901126101ab5780359067ffffffffffffffff80831161037d573660238401121561037d5782820135918183116103795736602484860101116103795760243591821161037957610312913691016106a6565b60443593909291506001600160a01b0380851685036103755761035e9493929161035860209860249333825260038b5260ff8a83205416918215610367575b505061071c565b016107e1565b90519015158152f35b909150541633145f80610351565b8680fd5b8580fd5b8480fd5b83346103db57806003193601126103db5761039a6106f1565b80546001600160a01b03198116825581906001600160a01b03167f8be0079c531659141344cd1fd0a4f28419497f9722a3daafe3b4186f6b6457e08280a380f35b80fd5b9050346101ab5760203660031901126101ab578160209360ff923581526002855220541690519015158152f35b839150346101065760603660031901126101065767ffffffffffffffff9080358281116101025761043f90369083016106a6565b6024949194358481116101ab5761045990369085016106a6565b93909560443586811161037d5761047390369084016106a6565b9790963386526020966003885260ff8b882054168015610669575b6104979061071c565b80861480610660575b15610625576104b4869b9a9997989b6109eb565b966104c18b5198896107ab565b8688526104cd876109eb565b888d019a90601f1901368c37895b888110610524578d8d8d8d8d83519485948186019282875251809352850193925b82811061050b57505050500390f35b83511515855286955093810193928101926001016104fc565b8060059e9b9a9c9d9e1b80880135601e1990818a3603018112156106215789019081359088821161061d578e8236039084011361061d578785101561060a57838a0135908a36030181121561061d57890190813591898311610606578f8360051b360391011361061d578585101561060a5786840135926001600160a01b038416840361060657908f6105b9949392016107e1565b8d518310156105f3571515908d018c01525f1981146105e0576001019c9b9a98999c6104db565b634e487b7160e01b8a526011885260248afd5b634e487b7160e01b8c5260328a5260248cfd5b8e80fd5b634e487b7160e01b8e5260328c5260248efd5b8d80fd5b8c80fd5b8a5162461bcd60e51b81528086018990526015602482015274082e4e4c2f240d8cadccee8d040dad2e6dac2e8c6d605b1b6044820152606490fd5b508986146104a0565b5086546001600160a01b0316331461048e565b92915034610102576020366003190112610102573583526002602090815292205460ff1615158152f35b9181601f840112156106d75782359167ffffffffffffffff83116106d7576020808501948460051b0101116106d757565b5f80fd5b600435906001600160a01b03821682036106d757565b5f546001600160a01b0316330361070457565b60405163118cdaa760e01b8152336004820152602490fd5b1561072357565b60405162461bcd60e51b815260206004820152601760248201527f4e6f7420617574686f72697a65642076657269666965720000000000000000006044820152606490fd5b1561076f57565b60405162461bcd60e51b8152602060048201526014602482015273496e76616c69642075736572206164647265737360601b6044820152606490fd5b90601f8019910116810190811067ffffffffffffffff8211176107cd57604052565b634e487b7160e01b5f52604160045260245ffd5b90919282156109b857831561097d576001600160a01b038116938415159061080882610768565b604093845161084c6054826020978a8983019687378a8201906bffffffffffffffffffffffff199060601b16898201524260348201520360348101845201826107ab565b51902094855f526002845260ff855f20541661094057831161090a576002116108c7579160017fcea9b1835a4aae1f8a306158168e5392d3359494e8e345ba606709673515138394926108a0606095610768565b835f5260028152825f208260ff1982541617905582519384528301524290820152a2600190565b50606491519062461bcd60e51b82526004820152601a60248201527f496e73756666696369656e74207075626c696320696e707574730000000000006044820152fd5b835162461bcd60e51b815260048101849052600f60248201526e141c9bdbd9881d1bdbc81cda1bdc9d608a1b6044820152606490fd5b845162461bcd60e51b8152600481018590526016602482015275141c9bdbd988185b1c9958591e481d995c9a599a595960521b6044820152606490fd5b60405162461bcd60e51b8152602060048201526013602482015272456d707479207075626c696320696e7075747360681b6044820152606490fd5b60405162461bcd60e51b815260206004820152600b60248201526a22b6b83a3c90383937b7b360a91b6044820152606490fd5b67ffffffffffffffff81116107cd5760051b60200190565b15610a0a57565b60405162461bcd60e51b815260206004820152601860248201527f496e76616c6964207665726966696572206164647265737300000000000000006044820152606490fdfea2646970667358221220788c586d8ac015afaca629b9e219bc747668ba86bd72eafa2b3632f038cc6c6b64736f6c63430008140033","linkReferences":{}},"methodIdentifiers":{"authorizedVerifiers(address)":"9a891716","batchVerifyAnonAadhaarProofs(bytes[],uint256[][],address[])":"3885c131","getVerifiedProofCount()":"f57a7642","isProofVerified(bytes32)":"42c8fd00","owner()":"8da5cb5b","renounceOwnership()":"715018a6","setVerifierAuthorization(address,bool)":"fab97aac","transferOwnership(address)":"f2fde38b","updateVerifierContract(address)":"e0dc970e","verifiedProofs(bytes32)":"176d80c4","verifierContract()":"cf695688","verifyAnonAadhaarProof(bytes,uint256[],address)":"75e906f1"},"id":31}